:100000000C94EE000C940D010C940D010C940D0158
:100010000C940D010C940D010C940D010C940D0128
:100020000C940D010C940D010C940D010C940D0118
:100030000C940D010C940D010C940D010C940D0108
:100040000C9421020C940D010C940D010C940D01E3
:100050000C940D010C940D010C940D010C940D01E8
:100060000C940D010C940D010C940D010C940D01D8
:100070000C940D010C940D010C940D010C940D01C8
:100080000C940D010C940D010C940D016E616E0029
:10009000696E66006364696E6F70737578585B652E
:1000A000666745464700616E006E66696E697479E1
:1000B00000CDCCCC3D0AD7233C17B7D13877CC2B19
:1000C000329595E6241FB14F0A000020410000C878
:1000D0004200401C4620BCBE4CCA1B0E5AAEC59DF9
:1000E0007400407A10F35A00A0724E18090010A54F
:1000F000D4E80000E87648170000E40B5402000042
:10010000CA9A3B000000E1F50500008096980000C7
:100110000040420F000000A08601000000102700F0
:10012000000000E803000000006400000000000A76
:1001300000000000000100000000002C76D888DCE0
:10014000674F0823DFC1DFAE59E1B1B796E5E3E4BD
:1001500053C63AE651997696E8E6C28426EB898C36
:100160009B62ED407C6FFCEFBC9C9F40F2BAA56F98
:10017000A5F490055A2AF75C936B6CF9676DC11B67
:10018000FCE0E40D47FEF520E6B500D0ED902E032F
:1001900000943577050080841E080000204E0A0078
:1001A0000000C80C333333330F986E12831141EFC4
:1001B0008D2114893BE65516CFFEE6DB18D1844B22
:1001C000381BF77C1D901DA4BBE424203284725E92
:1001D000228100C9F124ECA1E53D270011241FBEB6
:1001E000CFEFD0E1DEBFCDBF13E0A0E0B1E0EAE8A1
:1001F000FDE800E00BBF02C007900D92A437B107E5
:10020000D9F71DE0A4E7B3E001C01D92A334B10704
:10021000E1F70E9415010C94C3460C94000091E094
:1002200097BF80E682BF93BF08950F931F93CF932C
:10023000DF930E94F1388091C30168EC40E827E029
:1002400001E00E940C378091C40160E448E020E0A6
:1002500031E00E9483048091C40168E443E02AE015
:1002600031E00E94830485E08093C6018091C4013F
:1002700068EC4091C5012091770305E00E94ED03F1
:10028000282F882341F000D000D0EDB7FEB731967B
:100290008EE091E067C08EE291E00E94E24580919D
:1002A000C7019091C80168E276E00E94D737C8E2A2
:1002B000D6E000ED13E0699179918991999120E060
:1002C00030EA4FEF54E40E94883B20E030EA4FEFE1
:1002D00054E40E94A73A0E940B3BF801619371938A
:1002E0008F01F7E0C83BDF0731F700D000D08BE685
:1002F00091E0ADB7BEB712969C938E93119782E0B2
:1003000090E014969C938E9313970E94D045C0ED75
:10031000D3E00F900F900F900F908091C40160E098
:1003200042E09E010E948304809374032296B4E00D
:10033000C839DB0791F78FE691E00E94E245809192
:10034000C40168EC41E02091770300E00E94ED03D6
:10035000282F882379F000D000D0EDB7FEB7319672
:100360008FE991E0ADB7BEB712969C938E9311972B
:10037000228334C091E097BF80E682BF93BF789418
:10038000F8948091C40160E448E020E031E00E94EC
:1003900083048091C40168E443E02AE031E00E94D4
:1003A00083048091C40168EC43E020E001E00E94F6
:1003B000ED03182F8FEB91E00E94E2451123B1F07D
:1003C00000D000D0EDB7FEB731968FE991E0ADB720
:1003D000BEB712969C938E931197128313820E943C
:1003E000D0450F900F900F900F9026C0C8EBD7E02C
:1003F0008091C40160E042E09E010E94E2022296E8
:10040000B6E2C83FDB07A1F7C8EBD7E00BE611E087
:1004100000D000D0EDB7FEB7128301838991999186
:10042000948383830E94D0450F900F900F900F907C
:10043000F8E0C038DF0761F7DF91CF911F910F918E
:1004400008951F920F920FB60F920BB60F921124C0
:100450000F932F933F934F935F936F937F938F935C
:100460009F93AF93BF93EF93FF938091C30168EC89
:1004700040E324E000E00E940C372091750330E057
:10048000220F331F20533C4F8091C30160E042E0B4
:100490000E94B636809175038F5F80937503843612
:1004A00010F010927503FF91EF91BF91AF919F9162
:1004B0008F917F916F915F914F913F912F910F910C
:1004C0000F900BBE0F900FBE0F901F90189590E0ED
:1004D000883008F091E0892F0895982F87B3806EB7
:1004E00087BB983010F081E0089588B39295990FFA
:1004F000907E8F71892B88BB80E0089598B39560BA
:1005000098BB97B3976097BB92E59DB991E09EB970
:100510000E946D02089580E00E946D021DB887B3AD
:10052000887F87BB88B3887F88BB88B388BB0895E2
:10053000EF92FF920F931F93DF93CF93CDB7DEB768
:1005400064970FB6F894DEBF0FBECDBF7B012DB709
:100550003EB7285030400FB6F8943EBF0FBE2DBFB7
:10056000EDB7FEB731968E010F5F1F4FADB7BEB727
:1005700012961C930E93119729EC31E0338322835A
:1005800020ED31E035832483978386830E941746CC
:100590002DB73EB7285F3F4F0FB6F8943EBF0FBE52
:1005A0002DBFC801B7010E943C1F64960FB6F89496
:1005B000DEBF0FBECDBFCF91DF911F910F91FF9096
:1005C000EF900895CF92DF92EF92FF920F931F93D7
:1005D000DF93CF9300D0CDB7DEB7982FF62EE42E61
:1005E000D22EC32E80918203882309F4A8C0809163
:1005F000E501891711F081E0A5C0662329F490E494
:10060000941710F488E09EC00E947E0210917A0335
:10061000113049F0113028F0123009F08EC08CE012
:1006200091C089E08FC080917B03882361F480E3CF
:100630009DE063E873E00E949802882311F086E051
:1006400081C010937B030D2D1C2DECE4FE1681F16F
:10065000EF1538F0FF2069F0FBE4FF1609F071C0D8
:1006600036C08EE4F81659F192E5F91609F069C022
:1006700039C0FF2486EE9CE0B801A7019E012F5FE0
:100680003F4F0E94B22C882309F059C089819A817A
:100690008E159F0540F40E0D1F1D01501040F801EE
:1006A00080838EE04FC0892B09F04BC08DE04AC09B
:1006B00080918903F801808380918A0306C080912C
:1006C0008703F80180838091880381833AC08091F9
:1006D0008B0380FF04C081E0F801808332C0F80101
:1006E00011822FC080918303F8018083809183035E
:1006F00090918403A0918503B0918603892F9A2F4E
:10070000AB2FBB2781838091830390918403A091B9
:100710008503B0918603CD01AA27BB2782838091F0
:10072000830390918403A0918503B09186038B2F5E
:100730009927AA27BB27838304C082E003C087E0F0
:1007400001C080E00F900F90CF91DF911F910F912A
:10075000FF90EF90DF90CF9008951F93182F80E0C7
:100760000E947E0288EE93E024E131E0F9013197A6
:10077000F1F70197D9F7812F0E946D0280E898E088
:1007800069ED71E041E00E94D611882311F011E07B
:1007900021C08CED91E00E94D51F882361F08CED83
:1007A00091E00E945B208CED91E00E94D51F882390
:1007B00051F011E00DC08AED91E00E94D51F8CED43
:1007C00091E00E94D51F1093E5011092DC0110E02A
:1007D0000E948B02812F1F910895DF92EF92FF926A
:1007E0000F931F93182FE62ED42EF22E80918203A2
:1007F000882349F4812F0E94AD03882309F07AC031
:1008000081E0809382038091E501811711F081E0FE
:1008100074C087E08F1510F483E06FC0812F0E94B1
:100820007E0288ECE81611F082E067C0802F90E02D
:1008300002C0880F991FFA94E2F70D2D08230130AA
:1008400089F0013030F00530F1F0073089F184E0B3
:1008500054C086EE9CE00E94E62510927A03109226
:100860007B0344C080917A03882309F045C086EE5B
:100870009CE060E37DE041E00E94BE2A8823E1F530
:1008800000937A0333C080917A038823A9F586EE1A
:100890009CE060E37DE048E00E94BE2A882351F599
:1008A00086EE9CE060E37DE042E00E94BE2A19C033
:1008B00080917A03882301F586EE9CE060E37DE079
:1008C00042E00E94BE2A8823A9F44091F00C509186
:1008D000F10C6091F20C7091F30C86EE9CE00E949A
:1008E0007817882339F482E080937A030E948B0280
:1008F00080E003C087E001C086E01F910F91FF9068
:10090000EF90DF900895DF92EF92FF920F931F9385
:10091000DF93CF9300D0CDB7DEB7082F162FD42E9C
:100920007901683C41F468EC4FEF20E0F701008169
:100930000E94ED03B2C080918203882349F4802F86
:100940000E94AD03882309F0A5C081E08093820353
:100950008091E501801711F081E09FC0112329F4F7
:10096000F0E4FD1510F488E098C00E947E028091AA
:100970007A03813031F0813030F0823009F04FC09D
:100980003EC08AE08AC0103421F01834F1F089E0CA
:1009900084C0A0E0B0E04D2D50E0F701EA0FFB1F4E
:1009A0008081882331F0A730B10519F0A417B5076D
:1009B00019F4A456BC4F18C0FD01E456FC4F8083C7
:1009C0001196A830B10549F72AC0A0E0B0E04D2D3E
:1009D00050E0F701EA0FFB1F8081882319F0A4176C
:1009E000B50721F4A756BC4F1C9219C0FD01E7566C
:1009F000FC4F80831196A330B10559F710C0112325
:100A000011F082E04AC086EE9CE0B7014D2D50E027
:100A10009E012F5F3F4F0E9404268823D9F50E9434
:100A20008B0280917A038823B9F520E030E0F90148
:100A3000E456FC4F8081882351F4E22F121664F5AE
:100A400020E030E04E2F552747FD509510C02F5F16
:100A50003F4F2830310559F71FC0F901E05DF24FD3
:100A6000D901A456BC4F8C9180832F5F3F4F241730
:100A700035079CF3FA01E05DF24F8EE280838091AE
:100A80009903818380919A03828380919B0383835E
:100A9000148202C087E001C080E00F900F90CF91D8
:100AA000DF911F910F91FF90EF90DF9008950E94CA
:100AB00032360895882311F084E00895862FBA0114
:100AC0000E94573208950F931F93882311F084E0FA
:100AD00006C0CB01BA01A90198010E94DF311F9124
:100AE0000F9108950F931F93882311F084E006C09F
:100AF000CB01BA01A90198010E948B311F910F917E
:100B00000895882311F081E008950E94253008950A
:100B1000882311F081E008950E9488310895FC0136
:100B2000238130E040E050E0542F432F322F222722
:100B3000828190E0A0E0B0E0282B392B4A2B5B2B80
:100B4000542F432F322F2227818190E0A0E0B0E084
:100B5000282B392B4A2B5B2B542F432F322F222744
:100B6000808190E0A0E0B0E0282B392B4A2B5B2B52
:100B7000B901CA010895CF93DF939C01FC01419311
:100B8000BB27A72F962F852FE9018983CB01AA27A1
:100B9000BB278183472F5527662777274283DF911D
:100BA000CF910895EF92FF920F931F93FC01DB0109
:100BB0005B969C915B9780E05A962C915A9730E017
:100BC000822B932B7C0100E010E08081833091F434
:100BD00055969C91559780E054962C9130E0822B4D
:100BE000932BA0E0B0E0DC0199278827E82AF92AB6
:100BF0000A2B1B2BB701C8011F910F91FF90EF909B
:100C00000895CF93DF93FC01EB012A8F3B8F808106
:100C1000833029F4CA01AA27BB278C8B9D8BDF91D7
:100C2000CF9108950F931F93CF93DF93AC01EB0106
:100C30001986FC0186899789A08DB18D0097A10541
:100C4000B10509F444C080E090E0A0E0B0E03EE2ED
:100C5000FA01628D738D680F791FFB012081019667
:100C6000203281F0253009F425EE8930910529F4F0
:100C7000FE01EA0FFB1F31871196FE01EA0FFB1FF1
:100C8000218711968B30910519F7AC0FBD1F19966E
:100C90001C92DA015A96ED91FC915B9783858887C7
:100CA0005A960D911C915B97C8014C960E948F0536
:100CB000688379838A839B83C80146960E948F0547
:100CC0007F836E83BC01882799277D836C83DF91A6
:100CD000CF911F910F910895CF93DF93EC01A881DD
:100CE000B981109701F1FD0101C0319680818132F7
:100CF00048F08A33D1F78C9190E0C0978A30910503
:100D000090F405C08091AA03282F30E00EC0119600
:100D1000AE17BF0741F48230910528F49C0131964B
:100D2000F983E88302C02FEF3FEFC901DF91CF9134
:100D30000895DF93CF9300D0CDB7DEB79A83898330
:100D4000CE0101960E946C0697FF02C08BE003C0A3
:100D50008093AA0380E00F900F90CF91DF910895C8
:100D60002F923F924F925F926F927F928F929F92BB
:100D7000AF92BF92CF92DF92EF92FF920F931F93A9
:100D8000DF93CF93CDB7DEB7C854D0400FB6F894F9
:100D9000DEBF0FBECDBF9A878987E62E49015A0173
:100DA00026960FAF269727961FAF2797CE01099655
:100DB0000E946C066C0197FF02C08BE0BCC5FC0171
:100DC000EE0FFF1FEC55FC4F0190F081E02D3097A6
:100DD00009F01082CFA68C2D0E94810580FF02C0F1
:100DE00083E0A9C582FF02C08AE0A5C58C2D63E01F
:100DF000AE014F5F5F4F0E945A058823F1F42981AD
:100E00003A814B815C812115310541055105A9F0DD
:100E1000213000E8300700E0400700E0500768F4A8
:100E2000DA01C9010197A109B10982239323A423FF
:100E3000B5230097A105B10541F081E090E0A0E065
:100E4000B0E089839A83AB83BC8381149104A104AD
:100E5000B104A1F010E0811612E0910610E0A106A5
:100E600010E0B10608F462C521E0821620E0920687
:100E700020E0A20621E0B20608F058C5D501C40161
:100E80000197A109B10988219921AA21BB210097C5
:100E9000A105B10509F04AC58F2D869590E02C017A
:100EA000662477244FA258A669A67AA6F9E0440CD6
:100EB000551C661C771CFA95D1F74BA65CA66DA64F
:100EC0007EA6411451046104710409F431C58FA553
:100ED00061E0AE014B5F5F4F0E945A05882309F025
:100EE00029C52E2D30E089010870107023961FAFA0
:100EF0000EAF2397E3FC09C08FE390E0A0E0B0E0E1
:100F00008B8F9C8FAD8FBE8F04C01B8E1C8E1D8E51
:100F10001E8E6D817E818F8198854B8C5C8C6D8C53
:100F20007E8C641575058605970508F401C57B015F
:100F30008C01E418F508060917092196ECAEFDAE00
:100F40000EAF1FAF2197D801C70180389105A105C9
:100F5000B10508F4EDC465015401E9E0D694C794E5
:100F6000B794A794EA95D1F791E8A916B104C10402
:100F7000D10408F0DBC4D901A270B070BCAFABAF34
:100F800021FF07C0C90187709070029739F020FFD8
:100F900005C020FFCBC4B2E0B8AB02C0E3E0E8ABD1
:100FA00021964CAC5DAC6EAC7FAC219771E1769430
:100FB0006794579447947A95D1F74F86588A698AEF
:100FC0007A8A21966CAC7DAC8EAC9FAC21976CE09C
:100FD00096948794779467946A95D1F76B867C860C
:100FE0008D869E8689819A81AB81BC818C019D0111
:100FF00001501040204030400FAB18AF29AF3AAF3E
:1010000022273327A901281B390B4A0B5B0B2BAB7B
:101010003CAB4DAB5EAB38A9333009F070C002C0B9
:1010200043E048ABA114B104C104D10429F0ABA240
:10103000BCA2CDA2DEA227C0E3E3F2E081E090E013
:10104000A0E0B0E08BA39CA3ADA3BEA30CC04BA0BB
:101050005CA06DA07EA0440C551C661C771C4BA2A6
:101060005CA26DA27EA280819181009761F0329690
:10107000A0E0B0E06F84788889889A88681679063D
:101080008A069B0620F721966CAD7DAD8EAD9FAD97
:1010900021972BA13CA14DA15EA10E9400447901A2
:1010A0008A01D801C701865F9F4FA040B0408050A1
:1010B0009040AF4FBF4008F03BC41701280142E009
:1010C000220C331C441C551C4A95D1F787E092E052
:1010D000A0E0B0E0280E391E4A1E5B1E39E056948F
:1010E0004794379427943A95D1F720E2E22EF12CD9
:1010F000012D112D1B8A1C8A1D8A1E8A89C0A114EC
:10110000B104C104D10429F0ABA2BCA2CDA2DEA2DD
:1011100028C0E1E4F2E091E0492E512C612C712CC1
:101120004BA25CA26DA27EA20CC06BA07CA08DA085
:101130009EA0660C771C881C991C6BA27CA28DA2B9
:101140009EA280819181009761F03296A0E0B0E08C
:10115000EB84FC840D851E85E816F9060A071B073B
:1011600020F721966CAD7DAD8EAD9FAD21972BA163
:101170003CA14DA15EA10E940044C901DA01863F55
:101180000FE0900700E0A00700E0B00758F09C01D6
:10119000AD012E5F3F4F4F4F5F4F220F331F441F54
:1011A000551F18C09C01AD01220F331F441F551F4E
:1011B000280F391F4A1F5B1F2F5F3F4F4F4F5F4F55
:1011C00056954795379527952D5F3F4F4F4F5F4F6A
:1011D00011E018ABFFEF2F2EF1E03F2E412C512CE8
:1011E000220E331E441E551EE9E056944794379450
:1011F0002794EA95D1F771E0E72EF12C012D112DFE
:1012000020E230E040E050E02B8B3C8B4D8B5E8B3E
:101210008B8D9C8DAD8DBE8D8E0D9F1DA01FB11F22
:101220008F8B988FA98FBA8F2B893C894D895E89C6
:10123000220D331D441D551D280F391F4A1F5B1FEA
:101240008FA998ADA9ADBAAD820F931FA41FB51F8A
:101250006BA87CA88DA89EA886219721A821B921DA
:10126000821B930BA40BB50B68A9633089F4E80EBD
:10127000F91E0A1F1B1F6F88788C898C9A8C680E48
:10128000791E8A1E9B1E6F8A788E898E9A8E04C064
:10129000280E391E4A1E5B1E8BA19CA1ADA1BEA1CA
:1012A00064E0880F991FAA1FBB1F6A95D1F76B8C4A
:1012B0007C8C8D8C9E8C86199709A809B909820FA0
:1012C000931FA41FB51F21962CAD3DAD4EAD5FAD54
:1012D0002197281739074A075B0708F429C3CA0171
:1012E000B9016E197F09800B910B6219730984098A
:1012F00095096B887C888D889E886619770988098E
:1013000099092BA13CA14DA15EA10E940044390185
:101310004A0128A92330F9F436EF63163FEF73062C
:1013200030E0830630E0930608F07EC0A114B104DB
:10133000C104D10409F0FCC2ABA0BCA0CDA0DEA0CA
:10134000D694C794B794A794A114B104C104D1044E
:1013500009F068CEEDC248A9423009F058C056EFF6
:1013600065165FEF750650E0850650E0950680F142
:10137000A114B104C104D10481F48BA19CA1ADA13D
:10138000BEA1880F991FAA1FBB1F81349105A1051B
:10139000B10518F45C016D01B2CE8BAD9CAD892B0B
:1013A00009F03ECEA114B104C104D10409F0C0C2B9
:1013B000ABA0BCA0CDA0DEA0AA0CBB1CCC1CDD1C2D
:1013C00091E8A916B104C104D10408F498CEB0C2C2
:1013D000A6EF6A16AFE07A06A0E08A06A0E09A06B9
:1013E00018F5A114B104C104D10409F0A1C2ABA045
:1013F000BCA0CDA0DEA0AA0CBB1CCC1CDD1CB1E89F
:10140000AB16B104C104D10408F479CE91C2E8A9A5
:10141000E13051F4F6EF6F16FFE07F06F0E08F0643
:10142000F0E09F0608F084C29BA1610124964FAEB4
:10143000249725965FAE25972696AFAC26972796DC
:10144000BFAC279721962CAD3DAD4EAD5FAD21973A
:101450002D833E834F835887F501A50140505E4F91
:1014600029965FAF4EAF299711922996AEADBFADC9
:101470002997EA17FB07C1F7D501E6EEF1E0819164
:101480008D9321E0E13FF207D1F7D5011B961C9225
:101490001B9782E01C968C931C971D969C931D971E
:1014A0001E96EC921E971F96FC921F9781E0509615
:1014B0008C93F5017196B8A9B33019F080E092E0F1
:1014C00002C080E090E0808391834D815E816F81D6
:1014D00078854030E0E05E07E1E06E07E0E07E07FF
:1014E00038F4D50153964C93539754965C9304C0AB
:1014F000C50180960E94BB0588EFF501858B8FE3BF
:10150000808F118E8FEF828F138EC5014C964B8D7D
:101510005C8D6D8D7E8D0E94BB05F8A9F33009F0BE
:1015200048C0C5018D5B9F4F40E050E061E278E428
:101530000E94BB05C5018496A60124966FAD249731
:1015400025967FAD25970E94BB05C5018C9642E08C
:1015500050E060E070E00E94BB0581E0D501D096CC
:101560008C93D097D1961C92D19786E0D2968C938B
:10157000D297D3961C92E0E4F0E0AE0EBF1E80E856
:10158000D5018C93E2E0F0E0AE0EBF1E89E2D501FA
:101590008C93EEEBFFEFAE0EBF1ED501A95BBF4FE4
:1015A000E2EFF1E081918D9302E0E530F007D1F7B1
:1015B00020C0C501879640E050E061E278E40E94D7
:1015C000BB05D5015696CC9256975796DC92579705
:1015D00080E894968C93949789E296968C9396974C
:1015E0009B96E6E0F2E081918D9302E0E931F0070D
:1015F000D1F7950122503E4F3AAB29AB85E5D90191
:101600008C938AEA11968C938FA5B5012B8D3C8D16
:101610004D8D5E8D01E010E00E946305882309F086
:1016200089C1B8A9B33009F05BC02B8D3C8D4D8DBD
:101630005E8D2A5F3F4F4F4F5F4F8FA5B5010E94D0
:101640006305F50111922996EEACFFAC2997EE15D2
:10165000FF05C1F7C50142E552E561E671E40E946C
:10166000BB05C5018C519E4F42E752E761E471E62C
:101670000E94BB0508946108710881089108C501A2
:1016800088519E4FB401A3010E94BB05C50184513E
:101690009E4F42E050E060E070E00E94BB0585E5AF
:1016A000A9A9BAA98C938AEA11968C932B8D3C8DAB
:1016B0004D8D5E8D295F3F4F4F4F5F4F8FA5B50119
:1016C00001E010E00E9463052B8D3C8D4D8D5E8DF9
:1016D0002F5F3F4F4F4F5F4F8FA5B5010E946305AE
:1016E0008BA59CA5F50111920197E9F7B8A9B33034
:1016F000B1F4C50148EF5FEF6FEF7FEF0E94BB05CC
:10170000C50104964FEF5FEF6FEF7FEF0E94BB05BF
:10171000C50108964FEF5FEF6FEF7FE00DC0E8A9BE
:10172000E13029F048EF5FEF6FEF7FEF04C048EF43
:101730005FEF6FEF70E0C5010E94BB056F88788C8A
:10174000898C9A8C6F8E78A289A29AA2420131016B
:10175000740163010FA118A529A53AA5061517055F
:101760002805390510F4680179018FA5B5012F8D81
:1017700038A149A15AA186010E946305882309F076
:10178000D9C0F501119229962EAD3FAD2997E217E8
:10179000F307C1F78F8D98A1A9A1BAA18C0D9D1D4A
:1017A000AE1DBF1D8F8F98A3A9A3BAA36C187D0887
:1017B0008E089F0869F698A9933029F0CB88DC88B9
:1017C000ED88FE8804C0CBA0DCA0EDA0FEA0360111
:1017D00047010FA118A529A53AA50C151D052E0531
:1017E0003F0510F4380149018FA5B5012F8D38A1AF
:1017F00049A15AA183010E946305882309F09AC078
:10180000C618D708E808F90869F02F8D38A149A152
:101810005AA1260D371D481D591D2F8F38A349A3E6
:101820005AA3D5CF38A9333011F49CE011C08D8173
:101830009E81AF81B88580509040A140B04010F0AB
:1018400096E006C058A9523011F091E001C094E032
:101850002396AEADBFAD2397AB2B09F05EC0F5016B
:10186000119229964EAC5FAC2997E415F505C1F7A6
:1018700085E5A9A9BAA98C938AEA11968C93AEEB57
:10188000CA2EA1E0DA2ECA0CDB1CF601108281E020
:1018900081838283138294836D817E818F81988579
:1018A0004B8C5C8C6D8C7E8C640D751D861D971D1C
:1018B00021EC3EE340E050E00E94004479018A01BF
:1018C0008EEFD60115968C93D801C701F2E0B6953C
:1018D000A79597958795FA95D1F78F63F60186833B
:1018E0002783C60108964B8D5C8D6D8D7E8D0E9481
:1018F000BB054D815E816F817885C6010C960E9483
:10190000BB058FA5B50120E030E040E050E001E0EC
:1019100010E00E946305882369F48FA560E040E031
:1019200050E00E945A05882331F004C083E103C0CF
:101930008EE001C081E0C85BDF4F0FB6F894DEBFD8
:101940000FBECDBFCF91DF911F910F91FF90EF9010
:10195000DF90CF90BF90AF909F908F907F906F90CF
:101960005F904F903F902F9008958F929F92AF92EB
:10197000BF92CF92DF92EF92FF920F931F93CF937C
:10198000DF93EC018B818823C1F1B3E3CB2ED12C03
:10199000CC0EDD1E2FA538A949A95AA98981B60107
:1019A00001E010E00E946305882311F081E026C069
:1019B0001B82EFA4F8A809A91AA92B8D3C8D4D8D87
:1019C0005E8D8BA19CA1ADA1BEA147015801881AD3
:1019D000990AAA0ABB0A82169306A406B50668F4F9
:1019E0008A81823051F42E0D3F1D401F511F898185
:1019F000B60101E010E00E94630580E0DF91CF9125
:101A00001F910F91FF90EF90DF90CF90BF90AF901C
:101A10009F908F9008958F929F92AF92BF92CF9296
:101A2000DF92EF92FF920F931F93CF93DF93EC011E
:101A30007A018B010E94B50C882309F059C08EEF02
:101A40009FEFAFEFBFEFE80EF91E0A1F1B1F8F8934
:101A5000988DA98DBA8D0297A109B109E816F906EA
:101A60000A071B0720F0CC24DD24760112C029854B
:101A70003A8540E050E0C801B7010E94E1436B01A4
:101A80007C018BA59CA5ADA5BEA5C80ED91EEA1EDE
:101A9000FB1ECFA6D8AAE9AAFAAA13E3812E912C9D
:101AA0008C0E9D1EF40180E092E011920197E9F7FF
:101AB000AA24BB2403C00894A11CB11C89859A8563
:101AC000A816B90678F4950140E050E02C0D3D1DB4
:101AD0004E1D5F1D8981B40101E010E00E94630585
:101AE000882349F320E089859A85A816B90609F06C
:101AF00021E0822FDF91CF911F910F91FF90EF9006
:101B0000DF90CF90BF90AF909F908F9008950F93EC
:101B10001F93CF93DF93EC010E94B50C882309F04B
:101B200056C08881833009F04AC08C81813009F029
:101B300046C08E010D5C1F4FF80180E092E01192CB
:101B40000197E9F7CF5CDD4F85E589938AEA8883C1
:101B5000C253D240C80142E552E561E671E40E94F9
:101B6000BB05CE01895E9D4F42E752E761E471E615
:101B70000E94BB054F85588969897A89CE01855EA7
:101B80009D4F0E94BB054B855C856D857E85CE0192
:101B9000815E9D4F0E94BB052F8D38A149A15AA19E
:101BA0002F5F3F4F4F4F5F4F2FA738AB49AB5AAB1B
:101BB0008981B80101E010E00E9463051C828981DF
:101BC00060E040E050E00E945A05811181E0DF9121
:101BD000CF911F910F9108950F931F93CF93DF9390
:101BE000EC018B01009799F0E881F981309779F049
:101BF0008081882361F02A813B8185819681281725
:101C0000390729F481810E94880580FF0CC080E09B
:101C100090E029E0F80191838083822FDF91CF91BA
:101C20001F910F9108958881998120E0F3CF0F9340
:101C30001F93DF93CF9300D0CDB7DEB78C01BE01E9
:101C40006F5F7F4F0E94EC0D882319F4F801118219
:101C500010820F900F90CF91DF911F910F910895F7
:101C6000AF92BF92CF92DF92EF92FF920F931F93AA
:101C7000DF93CF930F92CDB7DEB75C016A017B0192
:101C8000FC0187A590A9A1A9B2A9481759076A071D
:101C90007B0711F490E01FC0C5010E94B50C982F7E
:101CA0008823C9F4B5016D5C7F4FF5018181A701DF
:101CB000960101E010E099830E94720599818823C2
:101CC00029F0CC24CA94DC2C760191E0F501C7A65A
:101CD000D0AAE1AAF2AA892F0F90CF91DF911F918C
:101CE0000F91FF90EF90DF90CF90BF90AF9008954D
:101CF000CF93DF93EC011B828FEF9FEFAFEFBFEF2E
:101D00008FA798ABA9ABBAABCE010E94300E882347
:101D100011F084E042C0CE5CDD4F988180E02A91D2
:101D2000C153D24030E0822B932B85559A4A11F053
:101D300083E033C08BA9893E29F08B3E69F58DA9DC
:101D4000803951F5DE01A759BF4FEAE1F2E08D91EC
:101D5000282F30E08191281B310982E0ED31F8070E
:101D600019F0232BA1F302C0232BA1F0DE01AB5706
:101D7000BF4FEEE1F2E08D91282F30E08191281BDA
:101D8000310982E0E332F80719F0232BA1F304C0F4
:101D9000232B11F480E001C082E0DF91CF91089500
:101DA0003F924F925F926F927F928F929F92AF92EB
:101DB000BF92CF92DF92EF92FF920F931F93DF9328
:101DC000CF93CDB7DEB768970FB6F894DEBF0FBEDE
:101DD000CDBF6B01B42EDB011D921C920E946C06DC
:101DE0007C0197FF02C08BE0C9C2FC01EE0FFF1F10
:101DF000EC55FC4F008111810115110511F48CE0A7
:101E0000BDC2F601118300839EEFD92EDB20D801DD
:101E10008C91882361F011968C910E94880580FD39
:101E200006C0DD2009F4A7C282FDA3C2A4C2F80146
:101E30001082E1828E2D0E94810580FF02C083E026
:101E40009DC2DD2011F082FD94C2C80140E050E047
:101E500060E070E00E94780E823029F01D8A1E8AB0
:101E60001F8A188E54C06E010894C11CD11C5601E3
:101E70008EEBE82E81E0F82E23E330E0E20EF31E35
:101E8000F801EE0DFF1D8DEC9FEFE80EF91E848129
:101E9000882329F460E070E080E090E004C0CF0186
:101EA00008960E948F05D5016D937D938D939D9328
:101EB0005D01E0E1F0E0EE0EFF1EFEEFEF16F1E057
:101EC000FF06D1F6B1E1EB2EF12CEC0EFD1ED60192
:101ED0008D919D910D90BC91A02D8D8B9E8BAF8B84
:101EE000B88F0097A105B10511F483E009C0C801BE
:101EF0004D895E896F89788D0E94780E823070F0EE
:101F0000E4E0F0E0CE0EDF1ECE14DF0401F78430F3
:101F100011F481E033C2823008F02FC2D801DF967D
:101F20009C91DF9780E0DE962C9130E0822B932B02
:101F30008050924009F021C2065B1F4FF80190814A
:101F400080E0D8012E918D010954104030E0822BA1
:101F5000932B2C01662477244114510461047104ED
:101F600039F4C801895A9F4F0E948F052B013C010B
:101F7000F801438E548E658E768E0D5B1F4FD8010F
:101F80003C9003541040F8013282832D81508230FE
:101F900008F0F3C1005C1F4FD8018C910054104031
:101FA000282F30E0F801328721872115310509F407
:101FB000E4C1C901019782239323892B09F0DDC174
:101FC0000B5B1F4FD8019C9180E0F80122918F019B
:101FD00004541040C22EDD24C82AD92AD8011896EC
:101FE000DC92CE921797C6018F709070892B09F002
:101FF000C4C1095B1F4FF801908180E0D8012E9188
:102000008D010654104030E0822B932B4C01AA2402
:10201000BB2481149104A104B10439F4C8018D5A80
:102020009F4F0E948F054B015C010E5B1F4FF80113
:10203000908180E0D8012E918D0101541040E22E54
:10204000FF24E82AF92AE114F10409F496C1232DAA
:1020500030E040E050E0C301B2010E94E143698BEF
:102060007A8B8B8B9C8B270166247724A4E0D694F3
:10207000C794AA95E1F7EE24FF24C40CD51CE61CF6
:10208000F71CC60ED71EE81EF91E8C149D04AE0464
:10209000BF0408F472C18C189D08AE08BF08F8018F
:1020A0002185328540E050E0C501B4010E94004422
:1020B000C901DA010097A105B10509F45EC1863FA7
:1020C000FFEF9F07FFEFAF07FFE0BF0708F055C125
:1020D000863F2FEF920720E0A20720E0B20718F01A
:1020E000F3E03F2E0DC0863F3FE0930730E0A307AB
:1020F00030E0B30718F43324339402C0E2E03E2EFC
:1021000072E0872E912CA12CB12C880E991EAA1E4C
:10211000BB1ED80157968D929D92AD92BC925A9754
:102120008D899E89AF89B88DF801878F90A3A1A36F
:10213000B2A39C01AD01240D351D461D571DD801CC
:1021400093962D933D934D935C9396978D899E899D
:10215000AF89B88DC80ED91EEA1EFB1ED8019B960A
:10216000CD92DD92ED92FC929E97B3E03B1661F525
:10217000025A1F4FF801908180E0D8012E918D0105
:102180000D55104030E0822B932B892B09F0F5C0C0
:10219000F80187819085892B09F0EFC0C801815A29
:1021A0009F4F0E948F05D80197966D937D938D93D5
:1021B0009C939A97A501940162E0220F331F441F5C
:1021C000551F6A95D1F737C0F80187819085892B13
:1021D00009F4D3C089899A89AB89BC89280F391F32
:1021E0004A1F5B1FD80197962D933D934D935C93A7
:1021F0009A97D501C401880F991FAA1FBB1FE2E05F
:102200003E1619F49C01AD0116C09C01AD01280DCC
:10221000391D4A1D5B1D569547953795279581E0D9
:1022200090E0A0E0B0E088229922AA22BB22280DEB
:10223000391D4A1D5B1D21503E4F4F4F5F4F89E0B6
:1022400056954795379527958A95D1F7F801838D4F
:10225000948DA58DB68D82179307A407B50708F452
:102260008CC08FEF9FEFAFEFBFEF8787908BA18B75
:10227000B28B83879487A587B68780E88483F3E051
:102280003F1609F061C00C591F4FD8019C9180E0A6
:10229000F80122918F010356104030E0822B932BDE
:1022A000019709F051C08D899E89AF89B88D01963B
:1022B000A11DB11D8D8B9E8BAF8BB88FC8014D8931
:1022C0005E896F89788D0E94300E882309F03CC0AA
:1022D000D80114961C920E5C1D4FF801908180E08D
:1022E000D8012E918D010153124030E0822B932BA7
:1022F00085559A4A49F5C801C3960E948F056255D3
:1023000072458146914401F5C801895E9D4F0E9446
:102310008F056257724781449146B1F4C801855ECA
:102320009D4F0E948F05D8011F966D937D938D93CD
:102330009C935297C801815E9D4F0E948F05F801C2
:102340006387748785879687D8013C928091A8031C
:102350009091A90301969093A9038093A8031696E0
:102360009C938E931597F801138A148A158A168AFE
:1023700002C08AE003C080E001C08DE068960FB61D
:10238000F894DEBF0FBECDBFCF91DF911F910F91AB
:10239000FF90EF90DF90CF90BF90AF909F908F9085
:1023A0007F906F905F904F903F9008951F93DF93C1
:1023B000CF9300D000D000D0CDB7DEB79C838B8305
:1023C0007E836D83142F7A836983CE0101960E94E8
:1023D0006C06DC0197FF02C08BE022C0FC01EE0F0F
:1023E000FF1FEC55FC4F0190F081E02D309709F074
:1023F0001082EB81FC81309709F01082AA0FBB1F7D
:10240000AC55BC4FED93FC93112311F480E008C050
:10241000CE010596BE016D5F7F4F40E00E94D00E59
:1024200026960FB6F894DEBF0FBECDBFCF91DF91D9
:102430001F910895BF92CF92DF92EF92FF920F9378
:102440001F93CF93DF93FC017A018B01C081D1816F
:10245000423051056105710508F4B3C08F89988D2C
:10246000A98DBA8D481759076A077B0708F0A9C0DC
:102470008881823009F45AC0833009F47CC08130ED
:1024800009F09FC06A01D694C794C40ED51EA60158
:10249000452F5527469560E070E08BA19CA1ADA12A
:1024A000BEA1480F591F6A1F7B1FCE010E94300E2C
:1024B000882309F08BC0F601F170EC0FFD1FB3A863
:1024C0000894C11CD11CA601452F5527469560E0F4
:1024D00070E08BA19CA1ADA1BEA1480F591F6A1F3E
:1024E0007B1FCE010E94300E882309F06FC06B2D38
:1024F00070E08FEF91E0C822D922CC0DDD1D9BA9A1
:1025000080E0682B792BC70181709070892B39F09E
:10251000B4E076956795BA95E1F79B0129C09B01D8
:1025200040E050E03F704070507054C0452F562F2F
:10253000672F77278BA19CA1ADA1BEA1480F591F82
:102540006A1F7B1FCE010E94300E882309F03EC017
:10255000EE0CFF1C001F111FC7019170FE01E80F58
:10256000F91F34A920E083A990E0822B932B9C01D2
:1025700040E050E02FC0E7E0769567955795479586
:10258000EA95D1F78BA19CA1ADA1BEA1480F591F1F
:102590006A1F7B1FCE010E94300E8823B9F452E0DF
:1025A000EE0CFF1C001F111F5A95D1F7C701917047
:1025B000C3968C0F9D1F0E948F059B01AC015F701D
:1025C00009C021E030E040E050E004C02FEF3FEFD1
:1025D0004FEF5FEFB901CA01DF91CF911F910F91CA
:1025E000FF90EF90DF90CF90BF9008952F923F9291
:1025F0004F925F926F927F928F929F92AF92BF9213
:10260000CF92DF92EF92FF920F931F93CF93DF93BE
:102610002C013A014B01FC01C081D1814030F0E036
:102620005F07F0E26F07F0E07F0708F0D8C0DB013A
:10263000CA018F719070A070B0700097A105B105AC
:1026400009F0CDC0F20146875787608B718BE68019
:10265000F78000851185E114F1040105110551F59C
:102660008881833040F08FA198A5A9A5BAA50097CD
:10267000A105B105E9F4A4019301F5E0569547954C
:1026800037952795FA95D1F78F819885A0E0B0E02E
:10269000281739074A075B0708F0A1C08FA198A542
:1026A000A9A5BAA5F201868B978BA08FB18F6FC0B9
:1026B0007C018D0189859A855C01CC24DD24E9E0CB
:1026C000AA0CBB1CCC1CDD1CEA95D1F7120126C05C
:1026D000C101B801A7010E941A127B018C016F3F52
:1026E000FFEF7F07FFEF8F07FFEF9F0711F481E0F8
:1026F00077C082E0E816F1040105110508F46FC007
:102700008F89988DA98DBA8DE816F9060A071B07DF
:1027100008F065C06A187B088C089D086A147B0461
:102720008C049D04A8F67EEFA72E7FEFB72E7FEFD7
:10273000C72E7FEFD72EAE0CBF1CC01ED11E8F89B7
:10274000988DA98DBA8D0297A109B109A816B9066D
:10275000CA06DB0628F020E030E040E050E012C07E
:1027600029853A8540E050E0C601B5010E94E14369
:102770009B01AC018BA59CA5ADA5BEA5280F391F5B
:102780004A1F5B1FF201268B378B408F518FF2015E
:10279000E28AF38A048B158B26893789408D518D07
:1027A0002115310541055105D1F0D401C30169E07E
:1027B000B695A795979587956A95D1F7820F931F40
:1027C000A41FB51F868B978BA08FB18FC30191700B
:1027D000C396C80FD91FD38FC28F80E001C082E09B
:1027E000DF91CF911F910F91FF90EF90DF90CF90ED
:1027F000BF90AF909F908F907F906F905F904F9021
:102800003F902F9008957F928F929F92AF92BF92A8
:10281000CF92DF92EF92FF920F931F93CF93DF93AC
:10282000EC016A017B014801590142305105610503
:10283000710508F4DFC08F89988DA98DBA8D48176E
:1028400059076A077B0708F0D5C08881823009F4F0
:1028500072C0833009F491C0813009F0CBC08A0185
:1028600016950795040F151FA801452F5527469566
:1028700060E070E08BA19CA1ADA1BEA1480F591FE3
:102880006A1F7B1FCE010E94300E782E882309F02C
:10289000B3C0D801B1700F5F1F4F91E0C922DD2492
:1028A000C114D10451F0FE01EA0FFB1F83A98F7000
:1028B000982D9295907F982B01C0982DAC0FBD1F3D
:1028C000D3969C9381E08B83A801452F552746958D
:1028D00060E070E08BA19CA1ADA1BEA1480F591F83
:1028E0006A1F7B1FCE010E94300E782E882309F0CC
:1028F00083C03FEFE32E31E0F32EE022F122CD281A
:1029000049F024E0B694A794979487942A95D1F738
:10291000E82D0BC0FE01EE0DFF1DE3A9E07FBB27F4
:10292000AB2D9A2D892D8F70E82BEC0EFD1ED70153
:10293000D396EC935CC0452F562F672F77278BA13A
:102940009CA1ADA1BEA1480F591F6A1F7B1FCE01DC
:102950000E94300E782E882309F04EC0CC0CDD1C6E
:10296000EE1CFF1CF601F170DE01AE0FBF1FD39607
:102970008C92D397FD0194AA3AC017E0769567959B
:10298000579547951A95D1F78BA19CA1ADA1BEA1F2
:10299000480F591F6A1F7B1FCE010E94300E782EF0
:1029A000882351F58FEF9FEFAFEFBFE08822992288
:1029B000AA22BB22B2E0CC0CDD1CEE1CFF1CBA9597
:1029C000D1F7860111700D5C1F4F0C0F1D1FC80140
:1029D0000E948F05607070708070907F862A972AA1
:1029E000A82AB92AC801B501A4010E94BB0581E04B
:1029F0008B8302C0A2E07A2E872DDF91CF911F91A9
:102A00000F91FF90EF90DF90CF90BF90AF909F908D
:102A10008F907F9008954F925F926F927F928F92E6
:102A20009F92AF92BF92CF92DF92EF92FF920F935D
:102A30001F93CF93DF938C012A013B01FC01C081DE
:102A4000D181411551056105710599F48B849C84F0
:102A5000AD84BE8481149104A104B10451F18F8925
:102A6000988DA98DBA8D88169906AA06BB0608F519
:102A700025C00E941A129B01AC01623071058105CC
:102A8000910508F4EEC06F3FFFEF7F07FFEF8F0760
:102A9000FFEF9F0709F4F3C08F89988DA98DBA8D38
:102AA000281739074A075B0708F4E9C053014201B8
:102AB00005C0B1E08B2E912CA12CB12C8F8598896B
:102AC000A989BA890097A105B10509F4D4C0841475
:102AD0009504A604B70409F04AC07501640108947E
:102AE000C11CD11CE11CF11C8F89988DA98DBA8D58
:102AF000C816D906EA06FB0628F0A2E0CA2ED12C99
:102B0000E12CF12CC801B701A6010E941A129B0109
:102B1000AC01613071058105910509F4B0C02F3F0A
:102B20008FEF38078FEF48078FEF580709F4A7C0DA
:102B30002115310541055105A9F02B853C854D85B1
:102B40005E85223031054105510588F08F89988DC9
:102B5000A98DBA8D281739074A075B0740F4490148
:102B60005A0105C0C114D104E104F104E9F575016D
:102B700064010894C11CD11CE11CF11C8F89988D43
:102B8000A98DBA8DC816D906EA06FB0660F0E2E008
:102B90008E169104A104B10408F46DC0F2E0CF2EAA
:102BA000D12CE12CF12CC801B701A6010E941A1208
:102BB0009B01AC016115710581059105A9F061309A
:102BC00071058105910509F45AC06F3FFFEF7F073A
:102BD000FFEF8F07FFEF9F0709F451C0C814D90416
:102BE000EA04FB0431F647C0CE01B701A6010FEF9E
:102BF0001FEF2FEF3FEF0E940314882381F541144C
:102C000051046104710449F0CE01B301A20197019E
:102C100086010E940314882311F5CB86DC86ED869D
:102C2000FE862F85388949895A898F89988DA98D83
:102C3000BA8D0297A109B10982179307A407B507B6
:102C400040F021503040404050402F87388B498B16
:102C50005A8B8C8181608C83A701960110C08130D2
:102C600029F021E030E040E050E009C02FEF3FEFD5
:102C70004FEF5FEF04C020E030E040E050E0B901EA
:102C8000CA01DF91CF911F910F91FF90EF90DF90DC
:102C9000CF90BF90AF909F908F907F906F905F90FC
:102CA0004F9008956F927F928F929F92AF92BF92B2
:102CB000CF92DF92EF92FF920F931F93CF93DF9308
:102CC000EC013B01C880D9802E853F854889598910
:102CD000EE88FF88088D198DE114F10401051105B6
:102CE00009F4F2C0E0E28E2E912CA12CB12C820EC0
:102CF000931EA41EB51E80E0881680E0980680E230
:102D0000A80680E0B80608F0DFC0D501C4019170C4
:102D1000A070B0700097A105B10509F0C8C0089473
:102D2000E11CF11C011D111DEE8AFF8A088F198F0D
:102D3000EA88FB880C891D89E114F104010511055D
:102D4000B1F4A501940175E05695479537952795FF
:102D50007A95D1F7D60117968D919C911897A0E09E
:102D6000B0E0281739074A075B07E0F5A0C0F60175
:102D7000818592850197A0E0B0E0A501940169E00A
:102D800056954795379527956A95D1F782239323D2
:102D9000A423B5230097A105B10509F088C0CE0191
:102DA000B801A7010E941A127B018C0162307105E3
:102DB0008105910508F48AC08FEFE8168FEFF806B9
:102DC0008FEF08078FEF180709F482C0F601878993
:102DD000908DA18DB28DE816F9060A071B0778F1D0
:102DE000672829F41E8A1F8A188E198E6DC04A8999
:102DF0005B896C897D89CE010E940B157B018C015A
:102E0000611571058105910511F487E062C061309B
:102E100071058105910509F459C08FEFE8168FEF10
:102E2000F8068FEF08078FEF180709F451C0C601A5
:102E3000B801A7010E940B0D882309F049C0EA8A56
:102E4000FB8A0C8B1D8B8EEF9FEFAFEFBFEFE80E71
:102E5000F91E0A1F1B1FF6018789908DA18DB28D67
:102E60000297A109B109E816F9060A071B0728F01D
:102E700020E030E040E050E016C0D60119962D91D8
:102E80003C911A9740E050E0C801B7010E94E1432D
:102E90009B01AC01F60183A594A5A5A5B6A5280FB5
:102EA000391F4A1F5B1F2E8B3F8B488F598F8E8691
:102EB0009F86A88AB98AC4019170C396C80ED91E8C
:102EC000DB8ECA8E80E005C084E003C082E001C0D2
:102ED00081E0DF91CF911F910F91FF90EF90DF90F4
:102EE000CF90BF90AF909F908F907F906F900895FC
:102EF0002F923F924F925F926F927F928F929F920A
:102F0000AF92BF92CF92DF92EF92FF920F931F93F7
:102F1000DF93CF93CDB7DEB727970FB6F894DEBF18
:102F20000FBECDBF6C017A018B018F832D2CBE01AA
:102F30006F5F7F4F0E94EC0D382E882309F0AFC1E0
:102F4000D6011F963C901F97332009F0A8C11A960E
:102F50008D909D90AD90BC901D978E149F04A006FF
:102F6000B10620F41E968C9181FF02C047015801E2
:102F7000F6012089318942895389D60150961D92E4
:102F80001D921D921C92539781149104A104B104C7
:102F900009F44BC1E981FA81818592852C0166246F
:102FA000772419E0440C551C661C771C1A95D1F740
:102FB000211531054105510509F43FC0DA01C90168
:102FC0000197A109B1098B839C83AD83BE83C501A1
:102FD000B4016150704080409040A30192010E9472
:102FE000004479018A016B817C818D819E81A301DE
:102FF00092010E940044E216F30604071507E8F068
:1030000088279927DC0184199509A609B7092B811E
:103010003C814D815E8182239323A423B523F60155
:10302000808B918BA28BB38B881A990AAA0ABB0A50
:10303000448955896689778931C0D60116964D91A4
:103040005D916D917C91199741155105610571054F
:10305000F1F48F81922D40E050E060E070E00E943A
:103060000B15AB01BC01413051056105710509F437
:1030700060C04F3FFFEF5F07FFEF6F07FFEF7F0776
:1030800009F440C0F6014683578360877187D601F3
:1030900054964D935D936D937C93579741155105CD
:1030A0006105710509F055C0C0C0F601808991899C
:1030B000A289B389840D951DA61DB71D808B918BA8
:1030C000A28BB38B868581FF0FC08F81922D0E94CA
:1030D0000B15AB01BC01411551056105710551F49A
:1030E00088249924540142C08F81922D0E941A1283
:1030F000AB01BC014F3FFFEF5F07FFEF6F07FFEF33
:103100007F0739F481E0D6011F968C9333243394E2
:10311000C6C0423051056105710558F0E981FA8158
:103120008789908DA18DB28D481759076A077B0753
:1031300020F082E0F601878767C08E0C9F1CA01EDE
:10314000B11ED60154964D935D936D937C93579722
:1031500007C0EE24FF248701E418F50806091709C3
:10316000481459046A047B0408F49FCFF60180894F
:103170009189A289B389880D991DAA1DBB1D808BD9
:10318000918BA28BB38BD501C4019170A070B070EC
:103190000097A105B10509F448C069807A80BEEFA7
:1031A000EB2EBFEFFB2EBFEF0B2FBFEF1B2FE40E5D
:1031B000F51E061F171FF3018789908DA18DB28D13
:1031C0000297A109B109E816F9060A071B07C0F41E
:1031D0002185328540E050E0C801B7010E94E143FB
:1031E0009B01AC01F30183A594A5A5A5B6A5280F65
:1031F000391F4A1F5B1F211531054105510539F45F
:1032000082E0D6011F968C93A2E03A2E48C0850139
:103210007401F9E016950795F794E794FA95D1F7BC
:10322000E20EF31E041F151F03C0EE24FF248701C6
:10323000F601208931894289538982859385A48545
:10324000B58582179307A407B50768F4D6011A96C7
:103250002D933D934D935C931D971E968C911E97D5
:1032600080641E968C93F60180899189A289B38926
:103270009170A070B0700097A105B10581F0808DAC
:10328000918DA28DB38DE816F9060A071B0739F058
:10329000D6015896ED92FD920D931C935B97832D6A
:1032A00027960FB6F894DEBF0FBECDBFCF91DF914A
:1032B0001F910F91FF90EF90DF90CF90BF90AF9054
:1032C0009F908F907F906F905F904F903F902F9046
:1032D00008956F927F928F929F92AF92BF92CF92FA
:1032E000DF92EF92FF920F931F93CF93DF933C01F6
:1032F0006A017B01FC01C081D18142305105610529
:10330000710508F470C08F89988DA98DBA8D481702
:1033100059076A077B0708F066C0011511052105EA
:10332000310569F0CE01B901A8010FEF1FEF2FEFB2
:103330003FEF0E940314682F882309F055C0C30192
:10334000B701A6010E941A124B015C0161157105BB
:103350008105910511F460E047C081E08816910471
:10336000A104B10409F43FC0EFEF8E16EFEF9E0603
:10337000EFEFAE06EFEFBE0611F461E035C0CE010F
:10338000B701A60100E010E020E030E00E94031445
:10339000682F882349F52F85388949895A898F896B
:1033A000988DA98DBA8D0297A109B10928173907FF
:1033B0004A075B0758F42F5F3F4F4F4F5F4F2F87F0
:1033C000388B498B5A8B8C8181608C8375016401A9
:1033D0008F89988DA98DBA8D88169906AA06BB0685
:1033E00008F4ADCF01C062E0862FDF91CF911F912D
:1033F0000F91FF90EF90DF90CF90BF90AF909F9094
:103400008F907F906F900895EF92FF920F931F938C
:10341000DF93CF9300D0CDB7DEB77C01BE016F5FE5
:103420007F4F0E94EC0D182F882309F06DC0F70123
:103430001785112309F068C0868581FD02C017E059
:1034400063C0F70120893189428953898285938538
:10345000A485B585281739074A075B0708F054C0CB
:10346000211531054105510591F44681578160854B
:103470007185C70100E010E020E030E00E9469198A
:10348000182FF70116821782108611862FC0F701B8
:103490004489558966897789C7010E941A12AB0150
:1034A000BC014F3FFFEF5F07FFEF6F07FFEF7F07A5
:1034B00011F411E01BC0413051056105710511F493
:1034C00012E014C0E981FA818789908DA18DB28DB7
:1034D000481759076A077B0748F4F70104891589DB
:1034E00026893789C7010E946919182FF701808939
:1034F0009189A289B38982879387A487B5878685B6
:103500008064868711111787812F0F900F90CF91BC
:10351000DF911F910F91FF90EF900895EF92FF922E
:103520000F931F93CF93DF93EC017B0108811981E7
:1035300084E024C0C8010E94300E882351F5EA8D32
:10354000FB8D2081222381F193859F739C83253EEF
:1035500071F02E3261F09F3051F020E030E09F7129
:10356000983011F421E030E02E153F05B1F0CE0186
:1035700060E070E00E945216882359F44E895F89FA
:10358000688D798D411551056105710599F688237E
:1035900021F01E8A1F8A188E198EDF91CF911F91FC
:1035A0000F91FF90EF90089584E0F3CFDF92EF92B8
:1035B000FF920F931F93DF93CF9300D0CDB7DEB769
:1035C0008C017B01BE016F5F7F4F0E94EC0DD82EF6
:1035D0008823F9F4E114F10441F4C80140E050E01B
:1035E00060E070E00E94F61215C0C80160E070E073
:1035F0000E948E1A843011F0882361F4C801B7014B
:103600000E941206C80160E070E00E9452168430E9
:1036100009F48D2D0F900F90CF91DF911F910F9195
:10362000FF90EF90DF900895CF92DF92EF92FF929C
:103630000F931F93CF93DF938C016B01DC01ED900F
:10364000FC9040E050E060E070E00E94F6128823B9
:1036500021F5C0E0D0E0F80146895789608D718D71
:10366000C7010E94300E8823C1F4D8015A96ED910B
:10367000FC915B97E081E53E29F0EE2319F0C0E074
:10368000D0E004C02196CC15DD0551F0C80161E001
:1036900070E00E9452168823F1F2843009F487E02A
:1036A000DF91CF911F910F91FF90EF90DF90CF901E
:1036B0000895DF92EF92FF920F931F93DF93CF93C2
:1036C000CDB7DEB7C254D0400FB6F894DEBF0FBE00
:1036D000CDBF8E010F5B1F4FF80191838083C8011E
:1036E000BE016F5F7F4F42E00E94D00E882309F039
:1036F000F4C089819A819A8F898FF801A081B18164
:1037000000E010E002C00F5F1F4FFD01E00FF11F4E
:1037100080818032C0F701501040FD01E00FF11FA1
:103720000F5F1F4F02C0015010400115110509F431
:1037300079C0808131978032B1F3DEC0FD01E60FA0
:10374000F71FE0812E2F30E06F5F7F4FE13818F1D7
:10375000E03A20F0E03EF8F0ED3FE8F44A30510561
:10376000C0F460177107A8F4FD01E60FF71FE081B0
:10377000E03478F0EF3720F0EF3759F0ED3F48F4C0
:10378000922F88272E2F30E0282B392B6F5F7F4F09
:1037900002C020E030E0C901815690404A9710F401
:1037A000205230402115310509F494C0EFE4F2E0D5
:1037B00001C031968081882329F090E08217930719
:1037C000C1F788C02F3F310509F018F48BE090E075
:1037D00002C08AE090E04817590708F07BC02F3FED
:1037E000310539F030F0F701E40FF51F30834F5FFA
:1037F0005F4FF701E40FF51F20834F5F5F4F6017A6
:10380000710708F49BCFF701E40FF51F80E203C0B6
:1038100081934F5F5F4F4B305105D0F38B81853ED5
:1038200009F458C01F8E18A219A21AA299E1E92E14
:10383000F12CEC0EFD1EC70140E050E060E070E0AE
:103840000E94F612D82E882309F046C0C70161E015
:1038500070E00E948E1A882399F4EBA9FCA9012B31
:1038600061F0DF01FE0133969E01225F3F4F81919F
:103870008D93E217F307D9F725C085EE808322C028
:10388000843059F5012B41F1C70161E070E00E94DD
:10389000141B882311F5EBA9FCA980E290E011929A
:1038A0000197E9F7EBA9FCA988E08387ABA9BCA93C
:1038B000FE0133969E01225F3F4F81918D93E21767
:1038C000F307D9F7E981FA8181E08383CF010E9470
:1038D000870D03C086E001C08D2DCE5BDF4F0FB694
:1038E000F894DEBF0FBECDBFCF91DF911F910F9136
:1038F000FF90EF90DF9008951B8260E070E040E061
:1039000050E083E0E82EF12CEC0EFD1E17CFAF92B5
:10391000BF92CF92DF92EF92FF920F931F93DF93AC
:10392000CF93CDB7DEB7AC970FB6F894DEBF0FBE1E
:10393000CDBF9CA78BA77B015A01CE018B96BE0100
:103940006F5F7F4F40E00E94D00E082F882309F060
:1039500072C0E114F10409F444C089819A819C8306
:103960008B8319861A861B861C86A3E0CA2ED12C4F
:10397000CC0EDD1EC60140E050E060E070E00E9429
:10398000F612182F882331F5C60161E070E00E941D
:103990008E1A182F8823F1F420E030E0F701E20FAF
:1039A000F31FAD8DBE8DA20FB31F8C9180832F5F4F
:1039B0003F4F2B30310591F7F7012BE030E01386B4
:1039C0002115310571F021503040828531978032C8
:1039D000B1F307C0143019F4F701108202C01123AB
:1039E00059F5A114B10439F1E981FA81478D50A14B
:1039F00061A172A1CF010E94300E182F8823E1F43B
:103A0000E981FA818081833019F0843039F403C070
:103A100083E490E005C084E690E002C087E290E095
:103A2000C3968E0F9F1F0E948F05F50160837183DF
:103A30008283938301C0102F812FAC960FB6F89428
:103A4000DEBF0FBECDBFCF91DF911F910F91FF90D1
:103A5000EF90DF90CF90BF90AF9008958F929F929C
:103A6000AF92BF92CF92DF92EF92FF920F931F938C
:103A7000CF93DF93EC018B01C880D980FB0180815B
:103A80008F3271F08C3561F0F60183899489A589B4
:103A9000B6898E839F83A887B9870CC00F5F1F4F9D
:103AA000F80180818F32D1F38C35C1F31E821F82E1
:103AB00018861986F8018081803250F03CE1A32EEF
:103AC000B12CAC0EBD1E20E2922E95E0892E0BC0CB
:103AD00080E88FA3CE0140E050E060E070E00E94FB
:103AE000F612682F0FC1F5018BE090E091920197DB
:103AF000E9F7F80180818E3241F040E050E060E06B
:103B000070E088E0E82EF12C28C0DE0180E090E033
:103B1000F801E80FF91FE0810196EE3249F41196A1
:103B20008330910509F4EBC05B96EC935B97F0CF83
:103B3000EF3229F0EC3539F0E13208F0E0C0E13243
:103B400010F424E201C020E2080F191F2FA3EDC0DA
:103B500048E050E0BBE0EB2EF12CF801E60FF71F38
:103B600020816F5F7F4F213208F461C02F3211F046
:103B70002C3569F4F801E60FF71F03C06F5F7F4F24
:103B8000319680818F32D1F38C35C1F350C02E3203
:103B900019F04E155F0540F0FBE0EF16F10409F453
:103BA000AEC02E32A9F2ABC0213808F4B9C0203A19
:103BB00030F0203E08F4B4C02D3F08F0B1C0F80149
:103BC000E60FF71F3081303408F499C03F3730F0EA
:103BD0003F3709F494C03D3F08F091C0C7010197F9
:103BE0004817590708F08BC06F5F7F4FFE01E40F45
:103BF000F51F248FCA010196FE01E80FF91F348FCB
:103C0000AC0112C031968081882329F090E08A1798
:103C10009B07C1F774C0822F81568A3108F4205265
:103C2000FE01E40FF51F248F4F5F5F4F96CF452BAA
:103C300009F465C08C8D853E09F48C8E213210F01C
:103C400080E001C084E0060F171F8FA36EC04E896D
:103C50005F89688D798DC7010E94300E682F882397
:103C600029F5EA8DFB8D8081882311F464E01EC064
:103C700083858F738C83838583FD12C0DF01F501FB
:103C80004BE050E08D91282F30E08191281B3109C5
:103C90004150504019F0232BA9F302C0232B31F0DF
:103CA000CE0160E070E00E94521648C08FA16623EA
:103CB00091F0643039F590E09C012470307085FFFC
:103CC00007C0232B09F40FCF80E88FA360E01AC050
:103CD000232BB9F017C082FD15C08C8184FF11C061
:103CE0006E857F8571706D5C7F4F6C0D7D1DC6018B
:103CF0000E94D2056E837F8388879987F4CE66E021
:103D000001C065E0862FDF91CF911F910F91FF9049
:103D1000EF90DF90CF90BF90AF909F908F900895DD
:103D2000A22FB0E0E4E2F2E06ECFE880F980CE01AD
:103D300040E050E060E070E00E94F612682F8823B7
:103D400009F485CFB3CF0F931F93DF93CF93CDB7F4
:103D5000DEB7AC970FB6F894DEBF0FBECDBF9CA701
:103D60008BA78B01CE018B96BE016F5F7F4F42E028
:103D70000E94D00E882369F589819A819C838B8368
:103D80006BA57CA5CE0103960E942E1D882309F504
:103D90008AA5807A11F086E01CC08D8D9E8DF80179
:103DA0004481558160E070E0BA01552744270681BF
:103DB000178120E030E0402B512B622B732B46966D
:103DC0000E94BB05E981FA8181E08383CF010E94D3
:103DD000870DAC960FB6F894DEBF0FBECDBFCF9166
:103DE000DF911F910F9108950F931F93DF93CF934E
:103DF000CDB7DEB7AC970FB6F894DEBF0FBECDBF20
:103E00009CA78BA7062F142FCE018B96BE016F5F48
:103E10007F4F42E00E94D00E882319F589819A8154
:103E20009C838B836BA57CA5CE0103960E942E1DDF
:103E30008823B9F48AA5807A11F086E012C0212F78
:103E40002772ED8DFE8D822F809593858923202307
:103E5000822B8387E981FA8181E08383CF010E94ED
:103E6000870DAC960FB6F894DEBF0FBECDBFCF91D5
:103E7000DF911F910F910895CF92DF92EF92FF9201
:103E80001F93DF93CF93CDB7DEB7AA970FB6F89401
:103E9000DEBF0FBECDBF9AA789A76B01CE01899661
:103EA0007E010894E11CF11CB70140E00E94D00E95
:103EB000182F8823A1F469A57AA5C7010E942E1D99
:103EC000182F882361F488A587FF02C016E007C079
:103ED000C114D10421F0C701B6010E941206812F3E
:103EE000AA960FB6F894DEBF0FBECDBFCF91DF917B
:103EF0001F91FF90EF90DF90CF9008950F931F9345
:103F0000DF93CF9300D000D0CDB7DEB78C017C8398
:103F10006B83009711F489E03FC0CE010396BE0188
:103F20006F5F7F4F40E00E94D00E882391F589811A
:103F30009A81F801918380836B817C81C8010E9402
:103F40002E1D882301F5F80187A187FD0EC084810D
:103F500084FF1EC0628D738D89819A810E94D20573
:103F6000F8016683778380879187E981FA8185816B
:103F70009681F80193838283C80140E050E060E0BD
:103F800070E00E94F612843019F0882329F001C0F5
:103F900085E0F801118210820F900F900F900F9022
:103FA000CF91DF911F910F9108950F93DF93CF93DE
:103FB000CDB7DEB7AE970FB6F894DEBF0FBECDBF5C
:103FC0009CA78BA7CE018B96BE016F5F7F4F40E011
:103FD0000E94D00E082F882381F589819A819C83C5
:103FE0008B836BA57CA5CE0103960E942E1D082F06
:103FF000882301F58AA587FF0BC0E981FA818985AD
:104000009A85AB85BC85838B948BA58BB68B15C0AD
:104010008F8184FF11C089819A819EA78DA76D8DA4
:104020007E8D0E94D205EDA5FEA5638B748B858BDA
:10403000968B03C0843009F405E0802FAE960FB64E
:10404000F894DEBF0FBECDBFCF91DF910F910895E1
:104050000F931F93CF93DF93EC010881198161E0E7
:1040600070E00E94141B482F8823F9F44E895F8961
:10407000688D798DC8010E94300E482F8823A9F4DD
:10408000EA8DFB8D80E290E011920197E9F7AA8D0D
:10409000BB8DFE017C962BE030E081918D93215009
:1040A0003040D9F781E0F8018383842FDF91CF91ED
:1040B0001F910F910895AF92BF92CF92DF92EF922E
:1040C000FF920F931F93DF93CF93CDB7DEB7AC97DB
:1040D0000FB6F894DEBF0FBECDBF9CA78BA7CE0155
:1040E0008B96BE016F5F7F4F42E00E94D00EF82E8C
:1040F000882309F0D0C089819A819C838B838E01AB
:104100000D5F1F4F6BA57CA5C8010E942E1DF82EC8
:10411000882351F084E0F81609F0BDC08AA585FF18
:1041200006C046E0F42EB7C038E0F32EB4C0C80194
:1041300040E050E060E070E00E940B155B016C0114
:10414000E981FA8181859285A0E0B0E029E0880FBD
:10415000991FAA1FBB1F2A95D1F78D879E87AF870E
:10416000B88BA114B104C104D10419F407E0F02EF6
:1041700088C081E0A816B104C104D10419F412E08A
:10418000F12E7FC08FEFA8168FEFB8068FEFC8060D
:104190008FEFD80609F491C0CF010E94B50CF82E1C
:1041A000882309F06EC089819A81B601A5010E9419
:1041B0000B0DF82E882309F064C009811A81B3E33E
:1041C000EB2EF12CE00EF11EF7018BE090E020E2E7
:1041D00021930197E9F78EE2F80183AB80E186AF86
:1041E000C801875B9F4F40E050E061E278E40E94A5
:1041F000BB0589819A81B701A60195010E9401063C
:10420000F70120E230E0808180A3319621503040D8
:10421000D1F70C5A1F4F8EE2F801808301501040F5
:1042200029853A854B855C8589819A81B8010E94F0
:104230000106E981FA81EE24E394E382CE0103963C
:104240000E942820F82E8823E1F40D8D1E8DC801D0
:10425000469640E050E061E278E40E94BB05898127
:104260009A81B801A60195010E94010680E1F8013A
:104270008387E981FA81E382CF010E94870DF82EBE
:104280000AC0CE010396B601A50100E010E020E0CF
:1042900030E00E9469198F2DAC960FB6F894DEBFFE
:1042A0000FBECDBFCF91DF911F910F91FF90EF9087
:1042B000DF90CF90BF90AF900895FF24F394E1CFAB
:1042C000DF92EF92FF920F931F93DF93CF93CDB7BF
:1042D000DEB7C657D0400FB6F894DEBF0FBECDBFD5
:1042E0008E010D581F4FD8018D939C93FE01EB5802
:1042F000FF4F71836083CF010E946C06C801BE012D
:104300006F5F7F4F42E00E94D00E882309F00BC1FF
:1043100089819A819CA38BA363E2E62EF12CEC0E9B
:10432000FD1EF80160817181C7010E942E1D882346
:1043300009F0F9C0FE01E65BFF4F8081807A11F041
:1043400086E0F1C08DAD9EAD9C01D901FE01339692
:104350008D918193EE15FF05D9F720E030E08E01B5
:10436000055B1F4FAE014D5D5F4FF801E20FF31F7C
:10437000DA01A20FB31F8C9180832F5F3F4F283249
:10438000310599F7FE01EB58FF4F60817181C8013B
:104390000E942E1D882309F5D80116962D913D9176
:1043A0004D915C91199789A59AA5ABA5BCA5281735
:1043B00039074A075B0709F09CC0F8012685378555
:1043C0004089518989A99AA9ABA9BCA9281739079D
:1043D0004A075B0709F08DC003C0843009F0A3C011
:1043E0008E01055B1F4FC8010E942820882309F019
:1043F0009AC0D8015A966D917C915B97DB01FE01C2
:10440000709681911D968C931D971196EE15FF0560
:10441000C1F78E85FB01838784FD02C0806283879C
:10442000E981FA81DD24D394D382DB011B968C9140
:1044300084FF61C05BE4E52EF12CEC0EFD1E29A586
:104440003AA54BA55CA5F70186819781A085B1852A
:10445000281739074A075B0709F44DC009811A81FB
:10446000C8010E94D2059B01AC012250304040405F
:104470005040F8018789908DA18DB28D0297A109D6
:10448000B109281739074A075B0708F04BC0618557
:10449000728580E090E00E94E143AB01BC01F8012D
:1044A00083A594A5A5A5B6A5480F591F6A1F7B1F14
:1044B0004115510561057105A9F1C8010E94300E31
:1044C00069817A81882379F5FB01ED5AFF4F81815B
:1044D0008E3289F4D70116962D913D914D915C91C4
:1044E0001997CB01BF010E940106E981FA81D382AD
:1044F00002C088E018C00BA11CA149AD5AAD6BAD3C
:104500007CADC8010E94300E882369F4EDADFEAD8C
:1045100085EE808381E0F801838389819A810E94FE
:10452000870D01C082E0CA58DF4F0FB6F894DEBF96
:104530000FBECDBFCF91DF911F910F91FF90EF90F4
:10454000DF900895BF92CF92DF92EF92FF920F9388
:104550001F93DF93CF93CDB7DEB7C455D0400FB6CE
:10456000F894DEBF0FBECDBF8E010D5A1F4FF8016C
:1045700091838083C801BE016F5F7F4F42E00E943C
:10458000D00E882309F05DC089819A819C838B833A
:10459000F80160817181CE0103960E942E1D88234F
:1045A00009F04FC08AA585FD02C087FF02C086E0E2
:1045B00048C08F81B82E80FF55C060C0F801838944
:1045C0009489A589B689C816D906EA06FB0609F4B6
:1045D00055C01CA70BA7C9AADAAAEBAAFCAA8E0190
:1045E000055D1F4FC80140E050E060E070E00E94B0
:1045F000F612882331F5C80160E070E00E948E1A3F
:104600008823E1F18430E1F11CC0ED8DFE8D85EE53
:10461000808381E0F8018383C114D104E104F104B3
:1046200061F0CE010396B701A60100E010E020E0A2
:1046300030E00E946919882321F489819A810E94BF
:10464000870DCC5ADF4F0FB6F894DEBF0FBECDBF3B
:10465000CF91DF911F910F91FF90EF90DF90CF905E
:10466000BF90089509811A816D8D7E8DC8010E94C9
:10467000D2056B017C01B4FCA1CF02C087E0E1CF81
:104680000B811C81498D5A8D6B8D7C8DC8010E94D8
:10469000300E882309F4B9CFD4CF2F923F924F9296
:1046A0005F926F927F928F929F92AF92BF92CF92C2
:1046B000DF92EF92FF920F931F93DF93CF93CDB7CB
:1046C000DEB764970FB6F894DEBF0FBECDBF9A8BEE
:1046D000898B7C8B6B8B8A01CE014196BE016F5F0B
:1046E0007F4F40E00E94D00E682F882309F0CFC092
:1046F000E981FA81D801ED93FC93278530894189BE
:104700005289E788F08C018D128DD801C70102977C
:10471000A109B10982179307A407B50738F0EB89FF
:10472000FC892083318342835383B1C080818130EF
:1047300009F03FC0FC83EB83AA24BB246501F2E0AF
:10474000EF2EF12C012D112DE3E08E2E912C8C0EED
:104750009D1EC401B801A7010E941A126F3FFFEF0E
:104760007F07FFEF8F07FFEF9F0711F491E07EC0F7
:10477000613071058105910509F475C061157105F8
:104780008105910529F40894A11CB11CC11CD11C00
:104790000894E11CF11C011D111DE981FA81878932
:1047A000908DA18DB28DE816F9060A071B0788F2D5
:1047B0005CC043A054A065A076A0AA24BB246501D8
:1047C000882499248114910479F489819A81B30110
:1047D000A2010E94300E982F882309F047C0089448
:1047E000411C511C611C711CA981BA818C91F4017E
:1047F000F3968230A9F4EA0FFB1F31802224A80D22
:10480000B91DD3968C9190E082299329892B29F4A4
:104810000894A11CB11CC11CD11CC401029612C079
:10482000CD018E0F9F1F0E948F059F70611571052E
:104830008105910529F40894A11CB11CC11CD11C4F
:10484000C40104960894E108F10801091109E11472
:10485000F1040105110549F07FEF872E71E0972ED5
:1048600088229922AFCF92E001C090E0AB89BC8949
:10487000AD92BD92CD92DC921397E981FA81A78621
:10488000B08AC18AD28A848181608483692F862F0D
:1048900064960FB6F894DEBF0FBECDBFCF91DF9107
:1048A0001F910F91FF90EF90DF90CF90BF90AF904E
:1048B0009F908F907F906F905F904F903F902F9040
:1048C00008952F923F924F925F926F927F928F92B4
:1048D0009F92AF92BF92CF92DF92EF92FF920F938F
:1048E0001F93DF93CF93CDB7DEB7C254D0400FB63E
:1048F000F894DEBF0FBECDBF21E4E22EF12CEC0E0A
:10490000FD1EFC01D7018D939C934B011082C701C2
:10491000BE016F5F7F4F40E00E94D00E882311F0F0
:10492000982FD3C0E981FA81FA8FE98F838994891E
:10493000A589B6898F8F98A3A9A3BAA3840189E119
:10494000A82EB12CAC0EBD1EB3E04B2E512C4C0E3C
:104950005D1EABE02A2E312C2C0E3D1E37017CC093
:10496000C50140E250E060E070E00E94F612982F2E
:10497000882309F07CC04FA558A969A97AA9898123
:104980009A810E94300E982F882309F070C06BA97D
:104990007CA989819A810E94D2056F8F78A389A30F
:1049A0009AA3C50140E050E060E070E00E94F6127A
:1049B000982F882309F05BC0C50160E070E00E9479
:1049C0008E1A982F8823A1F46BA97CA989819A81DA
:1049D0000E94D205C616D706E806F90609F490C06B
:1049E000C50160E070E00E945216982F882321F3E1
:1049F0009430E9F5A80192E03BC02F5F3F4F8191D1
:104A00008823D9F7C90103960817190718F4A801D4
:104A100091E12EC0285F3F4FD201A20FB31F285053
:104A20003040A8010BC041505040F30160817181BA
:104A3000640F751F8C91FB0180831197A215B3053C
:104A400091F720953095020F131FD301ED91FC9142
:104A5000E00FF11FBFE2B083CF8CD8A0E9A0FAA08D
:104A6000C114D104E104F10409F07ACF90E0A80167
:104A7000BE016F5B7F4FFB0120813181992319F5C6
:104A80008091AA03805DD9018D938AE3F901818326
:104A90009D012F5F3F4F0815190531F48FE21196E4
:104AA0008C932F5F3F4F0FC0DB01ED91FC9111976D
:104AB000E40FF51F8081F90181939F014F5F5F4FE4
:104AC0004815590590F3D9011C92892FCE5BDF4F11
:104AD0000FB6F894DEBF0FBECDBFCF91DF911F910F
:104AE0000F91FF90EF90DF90CF90BF90AF909F908D
:104AF0008F907F906F905F904F903F902F90089590
:104B0000C501B2010E941206FE013C9620E030E091
:104B100076CFEF92FF920F931F93DF93CF9300D046
:104B2000CDB7DEB77C01BE016F5F7F4F0E94EC0DF9
:104B3000982F882309F040C0F701868586FF3CC086
:104B4000448D558D668D778D89819A810E94300EB6
:104B5000982F882389F5F70100A111A1F801838519
:104B600080628387F7012681378140855185808166
:104B70009181B8010E940106F70142855385648541
:104B80007585C8014C960E94BB05C801469640E059
:104B900050E061E278E40E94BB05F801128A138AB2
:104BA000E981FA8181E08383CF010E94870D982FEC
:104BB000F70186858F7B8687892F0F900F90CF9185
:104BC000DF911F910F91FF90EF9008950F931F9326
:104BD000DF93CF9300D0CDB7DEB78C010E9489253B
:104BE000882359F4C801BE016F5F7F4F0E94EC0D0E
:104BF000882319F4F801118210820F900F90CF9141
:104C0000DF911F910F9108952F923F924F925F92E3
:104C10006F927F928F929F92AF92BF92CF92DF92CC
:104C2000EF92FF920F931F93DF93CF93CDB7DEB731
:104C300029970FB6F894DEBF0FBECDBF5C01162FCB
:104C4000072F1A013F832E83D9011D921C9288875A
:104C5000B986BE016F5F7F4F0E94EC0D8D83882364
:104C600009F0D2C1F501F785FD83FF2309F0CCC11E
:104C7000D5011E968C9181FD03C0B7E0BD83C4C1F0
:104C8000F5012089318942895389C101A0E0B0E052
:104C9000820F931FA41FB51F82179307A407B507A0
:104CA00018F4190120943094812F902F9C013C839B
:104CB0002B839FC1D50150962D913D914D915C91D3
:104CC0005397DA01C9019170A070B0700097A105E7
:104CD000B10509F025C1DA01C901E9E0B695A7954A
:104CE00097958795EA95D1F7E981FA816184728475
:104CF000089461087108682279226114710409F02E
:104D000052C0211531054105510589F4F50126816F
:104D10003781408551852115310541055105D1F473
:104D20008885998540E050E060E070E009C0D501D9
:104D300054964D915D916D917C9157978885998599
:104D40000E940B159B01AC01611571058105910550
:104D500009F453C1213031054105510511F482E0B8
:104D6000F3C02F3FFFEF3F07FFEF4F07FFEF5F0756
:104D700031F481E0D5011F968C938D8345C1F501F7
:104D8000248B358B468B578B86819781A085B18587
:104D90000097A105B10539F4D50116962D933D93E1
:104DA0004D935C931997E981FA8127A530A941A910
:104DB00052A9D5015896ED90FD900D911C915B97ED
:104DC0002E153F054007510731F4CF010E94B50C65
:104DD000882309F0B8C049805A80D50154962D9196
:104DE0003D914D915C91579722503040404050404A
:104DF000F2018789908DA18DB28D0297A109B10929
:104E0000281739074A075B07B8F401851285B801EE
:104E100080E090E00E94E1439B01AC01F20183A598
:104E200094A5A5A5B6A5280F391F4A1F5B1F2115FC
:104E300031054105510511F482E09CCF6301EE2458
:104E4000FF24C20ED31EE41EF51E4101892C9924B5
:104E500086948114910409F444C0C401860D971D01
:104E60000817190718F4480186189708F20181817C
:104E70006B817C81A701960184010E9463058823D0
:104E800009F077CFE981FA8127A530A941A952A974
:104E90002C193D094E095F09C401A0E0B0E02817B4
:104EA00039074A075B07C0F4DF01D39669E0220F98
:104EB000331F441F551F6A95D1F7EB81FC81E20F28
:104EC000F31F9F0120503E4F81918D93E217F3070E
:104ED000D9F7E981FA8113828401102F0027110F7D
:104EE00058C0F5012089318942895389828593858B
:104EF000A485B585281739074A075B0760F0C2010A
:104F00000E94B50C882309F034CFE981FA81C7A645
:104F1000D0AAE1AAF2AAF501C08ED18EE28EF38E5C
:104F2000D5015096ED90FD900D911C915397589698
:104F30004D915D916D917C915B9789819A810E94E1
:104F4000300E882321F081E0F501878716CFC70155
:104F5000917020E032E0281B390B810122153305C6
:104F600008F48901D50150968D919C9151979170CB
:104F7000C396E981FA81E80FF91F9801AB81BC81E2
:104F80008D91819321503040D9F7E981FA81B1E0C8
:104F9000B383201A310AEE81FF8180819181800FD5
:104FA000911F918380832B813C81200F311F3C8393
:104FB0002B83C801A0E0B0E0F50120893189428946
:104FC0005389820F931FA41FB51F808B918BA28BD7
:104FD000B38B228533854485558582179307A407B3
:104FE000B50710F4DA01C901F50182879387A48718
:104FF000B5872114310409F05DCED5011E968C9140
:105000001E9780641E968C938D8129960FB6F89416
:10501000DEBF0FBECDBFCF91DF911F910F91FF90EB
:10502000EF90DF90CF90BF90AF909F908F907F9048
:105030006F905F904F903F902F900895EF92FF9266
:105040000F931F93DF93CF9300D0CDB7DEB78C01C2
:10505000FC014281538157FD2AC0E40FF51F66838E
:105060007A010894E11CF11CFDE3EF16F104BCF099
:10507000BC016A5F7F4FFC0180819181A7019E0185
:105080002F5F3F4F0E94042689819A818E159F05CC
:1050900021F0EE24EA94FE2C02C0EE24FF24F80155
:1050A000F382E282848195810196958384830F90B7
:1050B0000F90CF91DF911F910F91FF90EF90089586
:1050C0000F931F93DF93CF9300D0CDB7DEB78C0142
:1050D000FC014281538157FD17C0BC016A5F7F4FBD
:1050E000808191819E012F5F3F4F0E94042688237B
:1050F00059F4F8012281338189819A81281739076F
:1051000019F46481758102C06FEF7FEFCB010F90BE
:105110000F90CF91DF911F910F9108952F923F92A1
:105120004F925F926F927F928F929F92AF92BF92B7
:10513000CF92DF92EF92FF920F931F93DF93CF9363
:10514000CDB7DEB7CA56D0400FB6F894DEBF0FBE5B
:10515000CDBFCF57DF4F68807980C158D040C1584C
:10516000DF4F88819981CF57D0409AA389A31CA291
:105170001BA21EA21DA263E8E62EF12CEC0EFD1E62
:105180005DE2252E01C07201D3016C91662309F402
:1051900078C10894611C711C653219F0CE018196AA
:1051A000ABC0F301B1903F01F0E3BF1631F4D3017E
:1051B000BD903D01332433940AC0BDE2BB1611F00B
:1051C000332405C0F301B1903F0142E0342E88241E
:1051D000992413C0C40133E0880F991F3A95E1F771
:1051E000880C991C880E991E8B0C911C80ED9FEFEA
:1051F000880E991ED301BD903D018B2D80538A30BE
:1052000048F3BCE6BB1619F0ECE4BE1629F4F4E052
:105210003F2AD301BD903D01BB2009F432C18B2D43
:1052200081568A3110F0AB2D02C0AB2DA052AF34A5
:10523000A1F0A03548F4A33409F44DC0A43479F0AA
:10524000A23409F056C05CC0A53549F0A83509F470
:105250004EC0A33509F04DC004C028E052C02AE07A
:1052600050C082E0482E512C4E0C5F1CF701E080AC
:10527000F18000E010E002C00F5F1F4FF701E00F68
:10528000F11F80818823C1F731FE06C014C0CE0112
:10529000819660E20E941E280F5F1F4FC801019790
:1052A00088159905A0F307C00894E11CF11CCE01F4
:1052B00081960E941E28D7016C916623A9F707C02A
:1052C000CE01819660E20E941E280F5F1F4F0815D5
:1052D0001905B0F358CF02E0402E512C4E0C5F1C44
:1052E000CE018196F70160810E941E284CCF20E1FB
:1052F00008C0CE0181966B2D0E941E28270143CF46
:1053000022E032FE0DC014E0412E512C4E0C5F1CE9
:10531000F701E080F18002811381A43409F514C003
:1053200087010E5F1F4FF70160817181A43439F44A
:1053300028017B010027F7FC0095102F05C02801EC
:105340007B0100E010E00CC017FF0AC0109500952B
:10535000F094E094E11CF11C011D111DF8E03F2ABE
:10536000CC24DD24822F90E0A0E0B0E0AB968CAF9F
:105370009DAFAEAFBFAFAB97C801B701AB962CAD39
:105380003DAD4EAD5FADAB970E940044A62EC80167
:10539000B701AB962CAD3DAD4EAD5FADAB970E9466
:1053A0000044C901DA017C018D01E9E0EA1538F415
:1053B000F8E7BF1611F027E001C027E2A20EE1E0F6
:1053C000F0E0EC0FFD1FEC0DFD1D20E3A20EA0820E
:1053D0000894C11CD11C0097A105B10521F080E201
:1053E000C816D10449F6832D33FE0AC0E1E0F0E08F
:1053F000EC0FFD1FEC0DFD1D20820894C11CD11C7B
:1054000080FD03C0B0E2BB2E02C0A0E3BA2E81FF34
:1054100002C086010EC0860105C0CE0181966B2DAB
:105420000E941E280F5F1F4FC8010197881599051C
:10543000A0F30894C108D108F1E0EF2EF12CEC0E96
:10544000FD1EEC0CFD1C0894C11CD11C0894C10865
:10545000D108CE018196D7016C910E941E28089434
:10546000E108F108C114D10489F707C0CE01819683
:105470006B2D0E941E280F5F1F4F08151905B0F3F2
:1054800082CECE0181960E946028C659DF4F0FB6AA
:10549000F894DEBF0FBECDBFCF91DF911F910F916A
:1054A000FF90EF90DF90CF90BF90AF909F908F9044
:1054B0007F906F905F904F903F902F900895EF9264
:1054C000FF920F931F93DF93CF93CDB7DEB7C654F0
:1054D000D0400FB6F894DEBF0FBECDBF8C017A83EB
:1054E00069831C821B821E821D827E010894E11C3E
:1054F000F11C05C00F5F1F4FC7010E941E28F80155
:1055000060816623B9F7C7010E946028CA5BDF4F3C
:105510000FB6F894DEBF0FBECDBFCF91DF911F91C4
:105520000F91FF90EF9008950F931F93DF93CF9308
:10553000CDB7DEB7C654D0400FB6F894DEBF0FBE6D
:10554000CDBF282F7A8369831C821B821E821D8215
:105550008E010F5F1F4FC801622F0E941E28C801D5
:105560000E946028CA5BDF4F0FB6F894DEBF0FBE03
:10557000CDBFCF91DF911F910F9108954F925F9210
:105580006F927F928F929F92AF92BF92CF92DF9253
:10559000EF92FF920F931F93DF93CF93CDB7DEB7B8
:1055A000E4970FB6F894DEBF0FBECDBF2C017CA7E9
:1055B0006BA7009719F469E0962EB0C15FE3B52E92
:1055C000B422CE018B96BE016F5F7F4F4B2D0E94A0
:1055D000D00E882309F0C4C189819A819C838B8372
:1055E0006BA57CA5CE0103960E942E1D982E8823C4
:1055F00029F48AA587FF02C036E0932E2B2D30E0D8
:10560000C9018C719070892B09F477C0992079F0C9
:1056100084E0981609F0A0C1CE0103960E942820CC
:10562000982E882309F098C198E0B92A06C08F8186
:10563000817109F08EC1B2FC89C1B3FE6BC00D8DC2
:105640001E8D89819A81B8010E94D2056B017C016F
:10565000C8010E9640E050E061E278E40E94BB058C
:10566000ED8DFE8D80E283876D8D7E8D89819A819F
:1056700020E030E040E050E00E9401068D8D9E8DDC
:105680004C9640E050E060E070E00E94BB05E9818C
:10569000FA8181E08383C114D104E104F104D1F1E2
:1056A00087A590A9A1A9B2A98DA79EA7AFA7B8ABBE
:1056B000CE010396B701A60100E010E020E030E043
:1056C0000E946919982E882309F023C189819A8143
:1056D0004DA55EA56FA578A90E94300E982EE98190
:1056E000FA810894C108D108E108F108C386D4867C
:1056F000E586F686882371F00CC1992009F02CC14B
:105700008F8184FF03C024E0922E03C1B1FE02C04A
:1057100080FD1FC1B3FE02C090E4B92AE980FA807F
:10572000F70187A590A9A1A9B2A9F201848F958F4D
:10573000A68FB78F0D8D1E8D11A300A3C701B801D1
:105740000E94D205962E772E682E892ED2011696AB
:105750006C93169717967C93179718968C931897B7
:1057600019969C93C8014C960E948F058B019C0151
:10577000F2016287738784879587F182E082D7017F
:1057800015968D919C91169793838283B686178682
:10579000108E118E128E138ED20150961D921D9274
:1057A0001D921C925397B5FEB8C001151105210535
:1057B000310509F4B2C0008B118B228B338BD701DA
:1057C00019968D919C911A975C01CC24DD2499E067
:1057D000AA0CBB1CCC1CDD1C9A95D1F7892D972DEA
:1057E000A62DB82DAC01BD0178018901742C852C42
:1057F00088279927DC018A199B09AC09BD0989AB67
:105800009AABABABBCAB23C0872D982D0E941A126C
:10581000AB01BC01423051056105710518F482E00D
:10582000982E01C099244F3F9FEF59079FEF6907BA
:105830009FEF790711F49924939489A99AA9ABA9A8
:10584000BCA9E80EF91E0A1F1B1F992031F4AE14E3
:10585000BF04C006D106C0F29924D20154964D93DC
:105860005D936D937C935797992009F078C0D80188
:10587000C7019170A070B0700097A105B10509F43F
:105880004DC069807A80BEEFAB2EBFEFBB2EBFEF5D
:10589000CB2EBFEFDB2EA40EB51EC61ED71EF30106
:1058A0008789908DA18DB28D0297A109B109A816A3
:1058B000B906CA06DB0658F52185328540E050E07E
:1058C000C601B5010E94E1439B01AC01F30183A530
:1058D00094A5A5A5B6A5280F391F4A1F5B1F211542
:1058E00031054105510599F0A9E016950795F79402
:1058F000E794AA95D1F72E0D3F1D401F511FD201ED
:1059000058962D933D934D935C935B9707C0F2E0BF
:105910009F2EF2011182108201C09924892DE496F4
:105920000FB6F894DEBF0FBECDBFCF91DF911F91B0
:105930000F91FF90EF90DF90CF90BF90AF909F902E
:105940008F907F906F905F904F900895E8E09E2E2B
:10595000E0CF77E0972EDDCF992001F3DACF892DC4
:10596000982ED7CF2F923F924F925F926F927F9255
:105970008F929F92AF92BF92CF92DF92EF92FF925F
:105980000F931F93DF93CF93CDB7DEB729970FB651
:10599000F894DEBF0FBECDBF5C01162F072F1A0192
:1059A0003F832E83F901118210828887B986BE0158
:1059B0006F5F7F4F0E94EC0D8D83882309F052C1E9
:1059C000F501F785FD83FF2309F04CC1F5018685BC
:1059D00080FD03C0F7E0FD8345C1F50122853385D5
:1059E0004485558580899189A289B389281B390B03
:1059F0004A0B5B0BC101A0E0B0E0281739074A074A
:105A00005B0708F41901812F902F9C013C832B83A5
:105A100025C1F5012089318942895389DA01C901FB
:105A20009170A070B0700097A105B10509F0CAC0CF
:105A3000DA01C90119E0B695A795979587951A954A
:105A4000D1F7E981FA8101851285015010400823C0
:105A500019230115110561F5211531054105510580
:105A600031F4F501668177818085918509C0F50162
:105A70004489558966897789888599850E941A1293
:105A8000623071058105910508F441C06F3FFFEF59
:105A90007F07FFEF8F07FFEF9F0729F481E0F501F4
:105AA00087878D83DFC0F501648B758B868B978B21
:105AB00049805A80F50124893589468957892250C1
:105AC000304040405040F2018789908DA18DB28DC9
:105AD0000297A109B109281739074A075B07B8F4EB
