:10000000CCC00000E9C00000E7C00000E5C000006F
:10001000E3C00000E1C00000DFC00000DDC0000060
:10002000DBC00000D9C00000D7C00000D5C0000070
:10003000BAC40000D1C00000CFC00000CDC0000095
:10004000CBC00000C9C00000C7C00000C5C0000090
:10005000C3C00000C1C00000BFC00000BDC00000A0
:10006000BBC00000B9C00000B7C00000B5C00000B0
:10007000B3C00000B1C00000DCC30000ADC0000090
:100080008DC30000A9C00000A7C000006E616E0013
:10009000696E660000407A10F35A00A0724E18098B
:1000A0000010A5D4E80000E87648170000E40B54DF
:1000B000020000CA9A3B000000E1F50500008096AE
:1000C0009800000040420F000000A08601000000E0
:1000D000102700000000E80300000000640000009A
:1000E00000000A00000000000100000000002C7663
:1000F000D888DC674F0823DFC1DFAE59E1B1B7967E
:10010000E5E3E453C63AE651997696E8E6C28426DA
:10011000EB898C9B62ED407C6FFCEFBC9C9F40F2B6
:10012000BAA56FA5F490055A2AF75C936B6CF96732
:100130006DC11BFCE0E40D47FEF520E6B500D0EDF7
:10014000902E0300943577050080841E080000205F
:100150004E0A000000C80C333333330F986E1283FD
:100160001141EF8D2114893BE65516CFFEE6DB18D1
:10017000D1844B381BF77C1D901DA4BBE424203296
:1001800084725E228100C9F124ECA1E53D276364FD
:10019000696E6F70737578585B0011241FBECFEFC6
:1001A000D0E1DEBFCDBF11E0A0E0B1E0EEEDF2E3C3
:1001B00000E00BBF02C007900D92A639B107D9F736
:1001C00022E0A6E9B1E001C01D92AA33B207E1F72F
:1001D0000E94760F0C946D1913CF1F93182F8A303D
:1001E00011F48DE0FADF5D9BFECF1CB980E090E05A
:1001F0001F9108951F93BC015F9BFECF1CB1812FFF
:10020000ECDF812F90E01F910895382F843010F09B
:1002100081E00895483010F082E00895822F90E048
:1002200002C0880F991F4A95E2F7282F313089F0D4
:10023000313028F03230B9F03330F1F41FC08AB3D6
:10024000862B8ABB8BB3262360958623282B2BBB5A
:1002500013C087B3862B87BB88B32623609586237C
:10026000282B28BB09C084B3862B84BB85B32623E7
:1002700060958623282B25BB80E0089582B1862BCC
:1002800082B983B1262360958623282B23B980E089
:100290000895F901843010F081E00895483010F09D
:1002A00082E008958130B9F0813028F0823019F170
:1002B0008330C1F539C08AB3882329F09AB3862FD9
:1002C0008095892305C08AB3882319F4862F8095E9
:1002D0008ABB89B31FC087B3882329F097B3862FC1
:1002E0008095892305C087B3882319F4862F8095CC
:1002F00087BB86B30FC084B3882329F094B3862FBD
:100300008095892305C084B3882319F4862F8095AE
:1003100084BB83B3862390E002C0959587954A9568
:10032000E2F7808380E0089582B1882329F092B1BA
:10033000862F8095892305C082B1882319F4862FE2
:10034000809582B981B1862390E002C0959587950A
:100350004A95E2F7808380E00895DF92EF92FF9262
:100360000F931F93CF93DF93082FD62EE72E813262
:1003700010F081E02AC00E94B60B8B3A29F50E944A
:10038000B60B8B3A09F50E94B60B8B3AE9F40E9442
:10039000B60BF82E182F8D2D9E2D9C01E90104C05F
:1003A0000E94B60B8993180F9E012D192017C0F3D8
:1003B0000E94B60BF01611F083E007C0811711F40C
:1003C00080E003C084E001C082E0DF91CF911F9103
:1003D0000F91FF90EF90DF900895AF92BF92CF9270
:1003E000DF92EF92FF920F931F93CF93DF93182F1B
:1003F000092FE62EB42EA52E2FEF621711F481E0FF
:1004000045C00E94B60B8B3A09F03FC00E94B60B64
:100410008B3AD9F50E94B60B8B3AB9F50E94B60B10
:10042000F82E0E94B60BC82EA12FB02FFD0101900F
:100430000020E9F73197DE2ED11A212F302FC90184
:10044000EC010C2D10E005C00E94B60B8993080F3B
:100450001F5F1D15C8F38B2D9A2D9C01E90104C067
:100460000E94B60B8993080F9E012B192E15C0F31D
:100470000E94B60BFC18FE1411F083E007C0801731
:1004800011F480E003C084E001C082E0DF91CF91ED
:100490001F910F91FF90EF90DF90CF90BF90AF90A2
:1004A0000895AF92BF92CF92DF92EF92FF920F9397
:1004B0001F93CF93DF93D82EC92EE62EB42EA52EF0
:1004C0008BEB0E94B20B8BEB0E94B20B8BEB0E946A
:1004D000B20BED2DFC2DEF0109900020E9F72197DB
:1004E000CE1BDF0B0C2F8C2F90E001968E0D911DF3
:1004F0008F3F910519F014F081E02CC00F5F102F91
:100500001E0D0150812F0E94B20B8C2F0E94B20B46
:10051000F12EF00E2D2D3C2DC901EC0110E006C08E
:1005200088810E94B20B8991F80E1F5F1017C0F3EB
:100530008B2D9A2D9C01E90100E006C088810E9464
:10054000B20B8991F80E0F5F0E15C0F38F2D0E942C
:10055000B20B80E0DF91CF911F910F91FF90EF9050
:10056000DF90CF90BF90AF900895EF92FF920F93DE
:100570001F93CF93DF93082F7B01813210F081E02E
:100580001CC08AEA0E94B20B8AEA0E94B20B8AEA75
:100590000E94B20B802F0E94B20B102FE70105C002
:1005A00088810E94B20B8991180F9E012E19201785
:1005B000B8F3812F0E94B20B80E0DF91CF911F91A1
:1005C0000F91FF90EF9008951092900091E199B9EA
:1005D0008AB188618AB9E5E9F0E08081866080832C
:1005E0001092980090939900EAE9F0E08081886188
:1005F0008083EDE9F0E080818660808380E091E097
:1006000090933702809336029093350280933402A0
:1006100087B3806E87BB80E00E94550B14D078941E
:1006200080E00895FC01608308951092BD01EAE91D
:10063000F0E08081806880830895EAE9F0E08081BD
:100640008F77808308958EB588608EBD8EB5826069
:100650008EBD87B7806187BF8FE890E09BBD8ABD64
:100660001DBC1CBC08958EE18093EC0108950F938E
:100670001F93CF93DF93EC018A01898170E0E82F0B
:10068000F0E09B012E0F3F1F8A8190E082179307B5
:1006900064F1AF014C5F5F4F4C0F5D1F20E030E015
:1006A0000DC0DA01A20FB31FF801E20FF31F808122
:1006B0008C9388818F5F88832F5F3F4F2617370782
:1006C00084F358814981242F30E0250F311D8A8120
:1006D00090E0450F2817390711F481E001C082E04E
:1006E0008B834983188280E002C081E08B83DF9195
:1006F000CF911F910F9108950F931F93CF93DF9385
:10070000EC01962F8981861710F481E042C0888120
:10071000682F70E06C5F7F4F6C0F7D1F20E030E032
:10072000092F10E00DC0DA01A20FB31FFB01E20F89
:10073000F31F80818C9388818F5F88832F5F3F4F69
:100740002017310784F38881082F10E0DB01A00F08
:10075000B11F40E050E008C0FB01E40FF51F8C9191
:1007600080831D924F5F5F4FE9819A01200F311FF7
:100770008E2F90E0281739077CF398819E1719F483
:100780001B82198204C082E08B83E91BE9831882F3
:1007900080E0DF91CF911F910F9108951F920F92EA
:1007A0000FB60F920BB60F9211242F933F934F93D6
:1007B0005F936F937F938F939F93AF93BF93EF93C9
:1007C000FF9380911101882359F08EE091E061E060
:1007D0004BEE51E091DF8091EB0180939C0005C0CE
:1007E00080919A008F7B80939A00FF91EF91BF9147
:1007F000AF919F918F917F916F915F914F913F91B9
:100800002F910F900BBE0F900FBE0F901F90189559
:10081000FC0181E083830895FC0113821182108220
:1008200080E090E014820196319680329105D1F7F4
:1008300008951F920F920FB60F920BB60F921124CC
:100840002F933F934F935F936F937F938F939F93D8
:10085000AF93BF93EF93FF9390919C009093C4014B
:100860008091BD01823031F1833030F4882359F01A
:10087000813009F085C00CC0833009F44BC084304E
:1008800009F07EC06AC0903F09F063C081E05FC09C
:1008900080919601981721F482E08093BD0107C0F2
:1008A0001092BD0180919A008F7780939A001092E8
:1008B000C5014FC09923B9F480919701823039F472
:1008C00083E08093BD018091990190E007C084305E
:1008D00051F483E08093BD0181E090E09093C301E7
:1008E0008093C20107C084E08093BD011092C301D0
:1008F0001092C20182E391E061E044EC51E0B7DE86
:100900008091C4018093C9019091C501980F909383
:10091000C5011FC082E391E061E044EC51E0A7DE35
:100920008091C4019091C501890F8093C501809188
:10093000C2019091C30101979093C3018093C201BA
:100940008091C2019091C301892B19F484E08093B6
:10095000BD018EE18093EC0113C08091C501981711
:1009600021F481E08093350103C082E391E054DFFC
:100970008EE18093EC0180919A008F7780939A00AA
:10098000FF91EF91BF91AF919F918F917F916F9167
:100990005F914F913F912F910F900BBE0F900FBE23
:1009A0000F901F9018951F920F920FB60F920BB6D3
:1009B0000F9211242F933F934F935F936F937F93E5
:1009C0008F939F93AF93BF93EF93FF938091BE015B
:1009D000813079F0813018F0823059F524C090913F
:1009E000C101913031F58EE18093EC019093BE010D
:1009F00020C08091EC0181508093EC018091EC014A
:100A0000882361F480919A008F7780939A0082E323
:100A100091E002DF82E08093BE010BC080919A00DA
:100A200087FD07C004C08091C101882311F4109292
:100A3000BE01FF91EF91BF91AF919F918F917F91F7
:100A40006F915F914F913F912F910F900BBE0F903F
:100A50000FBE0F901F901895EF92FF920F93DF93A8
:100A6000CF93CDB7DEB728970FB6F894DEBF0FBE91
:100A7000CDBF6D834E832F830887198294E09A83BC
:100A800014D6809161008061809361008091620042
:100A90008061809362008A819981890F9E81890F8C
:100AA0009F81890F9885890F89838EE091E061E0AD
:100AB000AE014B5F5F4FDBDD8EE091E061E0AE01A8
:100AC0004E5F5F4FD4DD8EE091E061E0AE014A5FA2
:100AD0005F4FCDDD8EE091E061E0AE01495F5F4F99
:100AE000C6DD8EE091E061E0AE01485F5F4FBFDDA3
:100AF0008EE091E061E0AE014F5F5F4FB8DD8D8128
:100B0000809396018A818093970180EFDCD5809154
:100B10009A00806480939A0080919A0086FDFCCFB1
:100B2000809162008F7E809362001092BD0180915F
:100B30009A00806880939A0081E08093C10180913F
:100B40003501813021F08091BE018230C1F71092D1
:100B5000C10180913501813011F081E017C082E33D
:100B600091E061E0AE014D5F5F4FC6DD8B81882370
:100B700051F482E391E061E0AE014C5F5F4FBCDD78
:100B80008C81F70180838B81880F880F28960FB6A0
:100B9000F894DEBF0FBECDBFCF91DF910F91FF90D4
:100BA000EF900895EF920F93DF93CF93CDB7DEB719
:100BB00028970FB6F894DEBF0FBECDBF6C834D8370
:100BC0002E830F83E886198293E09A836ED58091F5
:100BD00061008061809361008091620080618093F8
:100BE00062008A819981890F9D81890F9E81890F79
:100BF0009F81890F9885890F89838EE091E061E05C
:100C0000AE014C5F5F4F33DD8EE091E061E0AE01FD
:100C10004E5F5F4F2CDD8EE091E061E0AE014B5FF7
:100C20005F4F25DD8EE091E061E0AE014A5F5F4FEE
:100C30001EDD8EE091E061E0AE01495F5F4F17DDA0
:100C40008EE091E061E0AE01485F5F4F10DD8EE025
:100C500091E061E0AE014F5F5F4F09DD8C818093D1
:100C600096018A818093970180EF2DD580919A001B
:100C7000806480939A0080919A0086FDFCCF8091D9
:100C800062008F7E809362001092BD0180919A0075
:100C9000806880939A0081E08093C1018091350142
:100CA000813021F08091BE018230C1F71092C101E4
:100CB00080913501813011F081E00AC082E391E03A
:100CC00061E0AE014D5F5F4F17DD8B81880F880FAC
:100CD00028960FB6F894DEBF0FBECDBFCF91DF913F
:100CE0000F91EF900895CF92DF92EF92FF920F93C2
:100CF0001F93DF93CF93CDB7DEB727970FB6F89446
:100D0000DEBF0FBECDBF6D834E832F836801198276
:100D100092E09A83CAD480916100806180936100DF
:100D2000809162008061809362008A819981890F3D
:100D30009E81890F9F81890F89838EE091E061E018
:100D4000AE014B5F5F4F93DC8EE091E061E0AE015E
:100D50004E5F5F4F8CDC8EE091E061E0AE014A5F58
:100D60005F4F85DC8EE091E061E0AE01495F5F4F4F
:100D70007EDC8EE091E061E0AE014F5F5F4F77DC9B
:100D80008D81809396018A81809397018F818093D2
:100D9000990180EF98D480919A00806480939A00A2
:100DA00080919A0086FDFCCF809162008F7E8093B7
:100DB00062001092BD0180919A00806880939A0031
:100DC00081E08093C10180913501813021F08091D3
:100DD000BE018230C1F71092C1018091350181308E
:100DE00011F081E026C082E391E061E0AE014D5F49
:100DF0005F4F82DC8B818823C9F400E010E084E03F
:100E0000E82EF12CEC0EFD1E0CC082E391E061E0B7
:100E1000A70172DCF601E00FF11F8C8180830F5F68
:100E20001F4F8F8190E0081719077CF38B81880F83
:100E3000880F27960FB6F894DEBF0FBECDBFCF91B7
:100E4000DF911F910F91FF90EF90DF90CF90089569
:100E50000F931F93DF93CF9300D000D000D0CDB776
:100E6000DEB76C834D832E83198291E09A831DD463
:100E70008091610080618093610080916200806157
:100E8000809362008A819981890F9D81890F9E815B
:100E9000890F8983F8019801290F311D04C08981C8
:100EA0009191890F8983E217F307C9F78EE091E0EA
:100EB00061E0AE014C5F5F4FDADB8EE091E061E014
:100EC000AE014E5F5F4FD3DB8EE091E061E0AE019B
:100ED0004B5F5F4FCCDB8EE091E061E0AE014A5F9B
:100EE0005F4FC5DB8EE091E06E81A801C0DB8EE034
:100EF00091E061E0AE014F5F5F4FB9DB8C81809381
:100F000096018A818093970180EFDDD380919A00CA
:100F1000806480939A0080919A0086FDFCCF809136
:100F200062008F7E809362001092BD0180919A00D2
:100F3000806880939A0081E08093C101809135019F
:100F4000813021F08091BE018230C1F71092C10141
:100F500080913501813011F081E00AC082E391E097
:100F600061E0AE014D5F5F4FC7DB8B81880F880F5B
:100F700026960FB6F894DEBF0FBECDBFCF91DF919E
:100F80001F910F910895EF920F93DF93CF93CDB7F9
:100F9000DEB728970FB6F894DEBF0FBECDBF6C83C7
:100FA0004D832E830F83E88619821A827ED3809127
:100FB0006100806180936100809162008061809314
:100FC00062008A819981890F9D81890F9E81890F95
:100FD0009F81890F9885890F89838EE091E061E078
:100FE000AE014C5F5F4F43DB8EE091E061E0AE010C
:100FF0004E5F5F4F3CDB8EE091E061E0AE014B5F06
:101000005F4F35DB8EE091E061E0AE014A5F5F4FFC
:101010002EDB8EE091E061E0AE01495F5F4F27DBA0
:101020008EE091E061E0AE01485F5F4F20DB8EE033
:1010300091E061E0AE014F5F5F4F19DB8C818093DF
:1010400096018A818093970180EF3DD380919A0029
:10105000806480939A0080919A0086FDFCCF8091F5
:1010600062008F7E809362001092BD0180919A0091
:10107000806880939A0081E08093C101809135015E
:10108000813021F08091BE018230C1F71092C10100
:1010900080913501813011F081E00AC082E391E056
:1010A00061E0AE014D5F5F4F27DB8B81880F880FBA
:1010B00028960FB6F894DEBF0FBECDBFCF91DF915B
:1010C0000F91EF900895EF92FF920F93DF93CF93DC
:1010D000CDB7DEB728970FB6F894DEBF0FBECDBFF1
:1010E0006D834E832F830887198294E09A83DDD223
:1010F0008A819981890F9E81890F9F81890F9885A7
:10110000890F89838EE091E061E0AE014B5F5F4F14
:10111000AEDA8EE091E061E0AE014E5F5F4FA7DA9C
:101120008EE091E061E0AE014A5F5F4FA0DA8EE0B1
:1011300091E061E0AE01495F5F4F99DA8EE091E0A6
:1011400061E0AE01485F5F4F92DA8EE091E061E0CE
:10115000AE014F5F5F4F8BDA8D81809396018A815C
:101160008093970180EFAFD280919A008064809342
:101170009A0080919A0086FDFCCF1092BD0180916B
:101180009A00806880939A0081E08093C1018091E9
:101190003501813021F08091BE018230C1F710927B
:1011A000C10180913501813011F081E017C082E3E7
:1011B00091E061E0AE014D5F5F4F9EDA8B81882345
:1011C00051F482E391E061E0AE014C5F5F4F94DA4D
:1011D0008C81F70180838B81880F880F28960FB64A
:1011E000F894DEBF0FBECDBFCF91DF910F91FF907E
:1011F000EF900895EF920F93DF93CF93CDB7DEB7C3
:1012000028970FB6F894DEBF0FBECDBF6C834D8319
:101210002E830F83E886198293E09A8346D28A81CF
:101220009981890F9D81890F9E81890F9F81890FE7
:101230009885890F89838EE091E061E0AE014C5F73
:101240005F4F15DA8EE091E061E0AE014E5F5F4FD7
:101250000EDA8EE091E061E0AE014B5F5F4F07DA9E
:101260008EE091E061E0AE014A5F5F4F00DA8EE010
:1012700091E061E0AE01495F5F4FF9D98EE091E006
:1012800061E0AE01485F5F4FF2D98EE091E061E02E
:10129000AE014F5F5F4FEBD98C81809396018A81BD
:1012A0008093970180EF0FD280919A0080648093A1
:1012B0009A0080919A0086FDFCCF1092BD0180912A
:1012C0009A00806880939A0081E08093C1018091A8
:1012D0003501813021F08091BE018230C1F710923A
:1012E000C10180913501813011F081E00AC082E3B3
:1012F00091E061E0AE014D5F5F4FFED98B81880FB9
:10130000880F28960FB6F894DEBF0FBECDBFCF91E1
:10131000DF910F91EF900895CF92DF92EF92FF92BD
:101320000F931F93DF93CF93CDB7DEB727970FB6F9
:10133000F894DEBF0FBECDBF6D834E832F8368014F
:10134000198292E09A83B1D18A819981890F9E8115
:10135000890F9F81890F89838EE091E061E0AE0162
:101360004B5F5F4F84D98EE091E061E0AE014E5F4C
:101370005F4F7DD98EE091E061E0AE014A5F5F4F43
:1013800076D98EE091E061E0AE01495F5F4F6FD9A1
:101390008EE091E061E0AE014F5F5F4F68D98D81D3
:1013A000809396018A81809397018F818093990120
:1013B00080EF89D180919A00806480939A00809117
:1013C0009A0086FDFCCF1092BD0180919A00806842
:1013D00080939A0081E08093C10180913501813032
:1013E00021F08091BE018230C1F71092C10180913D
:1013F0003501813011F081E026C082E391E061E0A7
:10140000AE014D5F5F4F78D98B818823C9F400E02E
:1014100010E094E0E92EF12CEC0EFD1E0CC082E3EE
:1014200091E061E0A70168D9F601E00FF11F8C811E
:1014300080830F5F1F4F8F8190E0081719077CF39F
:101440008B81880F880F27960FB6F894DEBF0FBEEA
:10145000CDBFCF91DF911F910F91FF90EF90DF9063
:10146000CF9008950F931F93DF93CF9300D000D0B8
:1014700000D0CDB7DEB76C834D832E83198291E007
:101480009A8313D18A819981890F9D81890F9E81C9
:10149000890F8983F8019801290F311D04C08981C2
:1014A0009191890F8983E217F307C9F78EE091E0E4
:1014B00061E0AE014C5F5F4FDAD88EE091E061E011
:1014C000AE014E5F5F4FD3D88EE091E061E0AE0198
:1014D0004B5F5F4FCCD88EE091E061E0AE014A5F98
:1014E0005F4FC5D88EE091E06E81A801C0D88EE034
:1014F00091E061E0AE014F5F5F4FB9D88C8180937E
:1015000096018A818093970180EFDDD080919A00C7
:10151000806480939A0080919A0086FDFCCF10929F
:10152000BD0180919A00806880939A0081E0809349
:10153000C10180913501813021F08091BE0182305E
:10154000C1F71092C10180913501813011F081E025
:101550000AC082E391E061E0AE014D5F5F4FCCD8FD
:101560008B81880F880F26960FB6F894DEBF0FBECA
:10157000CDBFCF91DF911F910F910895EF920F93FF
:10158000DF93CF93CDB7DEB728970FB6F894DEBFC1
:101590000FBECDBF6C834D832E830F83E8861982E7
:1015A0001A8283D08A819981890F9D81890F9E81BA
:1015B000890F9F81890F9885890F89838EE091E03B
:1015C00061E0AE014C5F5F4F52D88EE091E061E088
:1015D000AE014E5F5F4F4BD88EE091E061E0AE010F
:1015E0004B5F5F4F44D88EE091E061E0AE014A5F0F
:1015F0005F4F3DD88EE091E061E0AE01495F5F4F03
:1016000036D88EE091E061E0AE01485F5F4F2FD8A1
:101610008EE091E061E0AE014F5F5F4F28D88C8192
:10162000809396018A818093970180EF4CD08091BE
:101630009A00806480939A0080919A0086FDFCCF86
:101640001092BD0180919A00806880939A0081E099
:101650008093C10180913501813021F08091BE01DC
:101660008230C1F71092C10180913501813011F0B3
:1016700081E00AC082E391E061E0AE014D5F5F4F1F
:101680003BD88B81880F880F28960FB6F894DEBF61
:101690000FBECDBFCF91DF910F91EF90089590E0F5
:1016A000883008F091E0892F0895982F883010F045
:1016B00081E0089588B39295990F907E8F71892B60
:1016C00088BB80E00895982F80919B0085FFFCCF18
:1016D00090939C0083EB92E00197F1F7089580913D
:1016E0009B0087FFFCCF80919C0008958FB9779B6A
:1016F000FECF8FB108951FB8779BFECF8FB10895AD
:101700001F93162FD2DF8DE393E00197F1F78091BD
:101710009B0085FFFCCF10939C0083EB92E0019728
:10172000F1F780E01F910895CF93DF93EB01BDDFC8
:101730008DE393E00197F1F720E030E008C02F5FE0
:101740003F4F8FEF2F3F380711F481E008C08091A1
:101750009B0087FFF4CF80919C00888380E0DF911D
:10176000CF9108955D9BFECF8CB908955F9BFECF0E
:101770008CB1089584E980937400089584EA80937D
:1017800074008091740087FFFCCF80917100887F86
:10179000883011F480E0089584E98093740081E03A
:1017A000089584E980937400089584EA8093740016
:1017B0008091740087FFFCCF80917100887F803119
:1017C00011F480E0089584E98093740082E0089524
:1017D00090E0880F991F8093730084E880937400D1
:1017E0008091740087FFFCCF80917100887F8831E1
:1017F00019F084E9809374000895880F8F5F8093B7
:10180000730084E8809374008091740087FFFCCF9C
:1018100080917100887F803419F084E9809374008E
:1018200008958093730084E880937400809174001D
:1018300087FFFCCF80917100887F883219F084E99E
:1018400080937400089584EC8093740080917400F8
:1018500087FFFCCF80917100887F803519F084E983
:101860008093740080917300089584E880937400DD
:101870008091740087FFFCCF80917100887F88354C
:1018800019F084E9809374000895FF920F931F93D9
:10189000182F062FF42E72DF812F9ADF802FC1DFE1
:1018A0008F2DBFDF84E9809374001F910F91FF900B
:1018B00008950F931F93082F162F60DF802F88DF66
:1018C000812FAFDF72DF802F98DFBDDF182FCDDFD4
:1018D00084E980937400812F1F910F910895809364
:1018E00070000895EF92FF920F931F93182F062F09
:1018F000F72EE42E43DF813009F441C0812F90E0C0
:10190000880F991F90708093730084E8809374000F
:101910008091740087FFFCCF80917100887F8831AF
:1019200039F4802F9F2D9C01F90190E024E81AC022
:1019300084E98093740083E022C0808180937300E7
:10194000209374008091740087FFFCCF8091710018
:101950003196887F883229F084E98093740084E08E
:101960000EC09F5F9E1548F381E08E1520F484E938
:101970008093740003C081E08093ED0180E01F91AB
:101980000F91FF90EF9008950F931F93CF93DF93E4
:10199000082FEB01142F8091ED01813039F405DF20
:1019A000823009F473C01092ED0101C0E7DE81308E
:1019B00009F46CC0802F90E0880F991F816080939C
:1019C000730084E8809374008091740087FFFCCFDB
:1019D00080917100887F803429F084E980937400BD
:1019E00085E054C01230D0F140E0212F30E021508A
:1019F000304054EC17C0509374008091740087FFFE
:101A0000FCCF80917100887F803529F084E9809334
:101A1000740086E03BC080917300FE01E40FF11D6D
:101A200080834F5F842F90E08217930724F384E82C
:101A3000809374008091740087FFFCCF80917100C7
:101A4000887F883529F084E98093740087E01EC080
:101A500080917300C10FD11D219713C084E880933A
:101A600074008091740087FFFCCF80917100887FA3
:101A7000883529F084E98093740088E007C080915C
:101A80007300888384E98093740080E0DF91CF91B4
:101A90001F910F9108952F923F924F925F926F92F4
:101AA0007F928F929F92AF92BF92CF92DF92EF92EE
:101AB000FF920F931F93CF93DF9300D000D000D0FD
:101AC000CDB7DEB74C011B01EAE2F2E014821582C9
:101AD0001682178210861186128613868091320232
:101AE00090913302892B09F0D8C0A2E2B2E014969B
:101AF0001D921D921D921C92179718961D921D9271
:101B00001D921C921B971F921F9206E511E01F93D6
:101B10000F93F9D78AE192E09F938F938EE591E03E
:101B20009F938F930E94C6151F9281E08F931F93FE
:101B30000F93E9D78EE192E09F938F938EE591E02A
:101B40009F938F930E94C6150AE012E00FB6F89497
:101B5000DEBF0FBECDBF1A8219820F2EF1E6CF2E47
:101B6000F1E0DF2EF02D0F2EFEE5EF2EF1E0FF2E3F
:101B7000F02DBB24B3941F921F929A819F93E98109
:101B8000EF93DF92CF92BFD71F930F93FF92EF9205
:101B9000FDD71F92BF92FA81FF9329812F93DF9285
:101BA000CF92B1D7C80104969F938F93FF92EF9283
:101BB000EDD789819A8101969A838983085F1F4FA7
:101BC0000FB6F894DEBF0FBECDBF0297A1F61F92ED
:101BD0001F921F921F920DE611E01F930F9393D750
:101BE00082E092E09F938F938EE591E09F938F9395
:101BF000CDD71F921F921F92FF24F394FF921F9341
:101C00000F9381D786E092E09F938F938EE591E0CA
:101C10009F938F93BBD71F921F921F921F9209E72A
:101C200011E01F930F936FD78AEF91E09F938F93EB
:101C30008EE591E09F938F93A9D71F92FF921F92F9
:101C40001F921F930F935FD70FB6F894DEBF0FBE9E
:101C5000CDBF8EEF91E09F938F93EEE5F1E0FF9380
:101C6000EF9394D785E891E061D786EF91E09F9359
:101C70008F938EE591E09F938F9388D78091320266
:101C800090913302019690933302809332020FB603
:101C9000F894DEBF0FBECDBFF9C0809126029091AF
:101CA0002702A0912802B091290280931E029093EE
:101CB0001F02A0932002B0932102E8C0ED81FE81B3
:101CC0002081318142815381C301B20106D2F801E2
:101CD00020813181428153814BD169837A838B8307
:101CE0009C83ED81FE812481358146815781C70126
:101CF000B601F3D19B01AC0169817A818B819C8112
:101D000037D1F80161937193819391938F018D8104
:101D10009E8108969E838D83A816B90679F6F401F4
:101D2000C080D180E280F38002E012E0F8012081DF
:101D3000318142815381C701B601CFD1EAE2F2E09D
:101D4000208131814281538113D12B013C01EAE290
:101D5000F2E06083718382839383F801248135816B
:101D600046815781C701B601B8D120912E0230912A
:101D70002F024091300250913102FAD06B017C0168
:101D800060932E0270932F02809330029093310261
:101D9000E2E2F2E02081318142815381C301B2014C
:101DA000E7D02B013C01E2E2F2E0608371838283A1
:101DB000938320912602309127024091280250916E
:101DC0002902C701B601D4D06B017C0160932602C1
:101DD000709327028093280290932902EAEFF1E0A2
:101DE0002081318142815381C301B20176D120919A
:101DF000F2013091F3014091F4015091F501B8D016
:101E00002B013C012091FE013091FF014091000225
:101E100050910102C701B60160D19B01AC01C30121
:101E2000B201A6D06B017C016093F2017093F301C3
:101E30008093F4019093F5012091F6013091F70120
:101E40004091F8015091F901F40160817181828122
:101E5000938143D12091EE013091EF014091F00147
:101E60005091F10185D09B01AC016093EE0170931C
:101E7000EF018093F0019093F101C701B60178D092
:101E8000F101608371838283938317C08AE092E0BB
:101E90009E838D8302E212E00F2EFAE1AF2EF2E074
:101EA000BF2EF02DEAE1F2E0408051806280738025
:101EB000C480D580E680F78001CF26960FB6F894CF
:101EC000DEBF0FBECDBFDF91CF911F910F91FF906D
:101ED000EF90DF90CF90BF90AF909F908F907F90CA
:101EE0006F905F904F903F902F900895CF93DF9326
:101EF000CDB7DEB728970FB6F894DEBF0FBECDBFC3
:101F00000E94E4028E010B5F1F4F0F2EFEE5CF2EC5
:101F1000F1E0DF2EF02D0F2EF1E9EF2EF1E0FF2E94
:101F2000F02D1D821E821F82188619821A821B8242
:101F30001C828BE891E0FAD51F930F93DF92CF922A
:101F400025D6BE016F5F7F4FC801A5DD8C818F93C1
:101F50008B818F938A818F9389818F93FF92EF92E8
:101F6000D2D50FB6F894DEBF0FBECDBFDACF505832
:101F7000BB27AA270ED077C068D030F06DD020F0F4
:101F800031F49F3F11F41EF45DC00EF4E095E7FBC1
:101F900053C0E92F79D080F3BA176207730784071B
:101FA000950718F071F49EF591C00EF4E0950B2E94
:101FB000BA2FA02D0B01B90190010C01CA01A0019B
:101FC0001124FF27591B99F0593F50F4503E68F1F6
:101FD0001A16F040A22F232F342F4427585FF3CF37
:101FE000469537952795A795F0405395C9F77EF408
:101FF0001F16BA0B620B730B840BBAF09150A1F051
:10200000FF0FBB1F661F771F881FC2F70EC0BA0FD6
:10201000621F731F841F48F4879577956795B7955E
:10202000F7959E3F08F0B3CF9395880F08F0992756
:10203000EE0F97958795089597F99F6780E870E070
:1020400060E008959FEF80EC089500240A9416162E
:10205000170618060906089500240A941216130696
:10206000140605060895092E0394000C11F4882324
:1020700052F0BB0F40F4BF2B11F460FF04C06F5F40
:102080007F4F8F4F9F4F089557FD9058440F551F16
:1020900059F05F3F71F04795880F97FB991F61F0EA
:1020A0009F3F79F087950895121613061406551F61
:1020B000F2CF4695F1DF08C0161617061806991FCD
:1020C000F1CF86957105610508940895E894BB27C2
:1020D00066277727CB0197F908950BD0C4CFB5DFDA
:1020E00028F0BADF18F0952309F0A6CFABCF112462
:1020F000EECFCADFA0F3959FD1F3950F50E0551FA7
:10210000629FF001729FBB27F00DB11D639FAA274C
:10211000F00DB11DAA1F649F6627B00DA11D661F9B
:10212000829F2227B00DA11D621F739FB00DA11DBC
:10213000621F839FA00D611D221F749F3327A00D76
:10214000611D231F849F600D211D822F762F6A2F12
:1021500011249F5750408AF0E1F088234AF0EE0F97
:10216000FF1FBB1F661F771F881F91505040A9F7A4
:102170009E3F510570F060CFAACF5F3FECF3983ED1
:10218000DCF3869577956795B795F795E7959F5F0B
:10219000C1F7FE2B880F911D9695879597F90895A5
:1021A0002F923F924F925F926F927F928F929F9267
:1021B000AF92BF92CF92DF92EF92FF920F931F9355
:1021C000CF93DF93CDB7DEB760970FB6F894DEBF3D
:1021D0000FBECDBF7C011B016A01FC011782168274
:1021E000838181FF2AC39E012F5F3F4F3901F70191
:1021F0009381F10193FD859193FF81911F018823C4
:1022000009F417C3853239F493FD859193FF8191C9
:102210001F01853231F4B70190E039D456016501D0
:10222000E6CF10E0512C912CFFE1F915D8F08B325C
:1022300079F038F4803279F08332A1F4F92DF0612D
:102240002EC08D3261F0803369F4292D21602DC0BC
:10225000392D3260932E892D8460982E2AC0E92D65
:10226000E86015C097FC2DC020ED280F2A3088F4B7
:1022700096FE06C03AE0139F200D1124122F19C0BC
:102280008AE0589E200D1124522EE92DE0629E2EE8
:1022900010C08E3231F496FCCCC2F92DF0649F2E22
:1022A00008C08C3621F4292D2068922E02C0883671
:1022B00041F4F10193FD859193FF81911F018111FB
:1022C000B3CF9BEB980F933020F4992D9061805EF3
:1022D00007C09BE9980F933008F059C1992D9F7E54
:1022E00096FF16E09F73992E853619F49064992E07
:1022F00008C0863621F4392F3068932E02C01111A0
:10230000115097FE07C01C3350F444244394410EEF
:1023100027E00BC0183038F027E017E005C027E0B1
:102320009CE3492E02C0212F412C560184E0A80EC7
:10233000B11CF6016081718182819381042DA3011A
:10234000B8D26C01F981FC87F0FF02C0F3FF06C030
:1023500091FC06C092FE06C000E205C00DE203C07B
:102360000BE201C000E08C858C7019F0011143C2B2
:1023700080C297FE10C04C0CFC85F4FF04C08A811B
:10238000813309F44A94141474F528E0241578F57F
:1023900088E0482E2CC096FC2AC0812F90E08C1536
:1023A0009D059CF03CEFC3163FEFD30674F0892DDA
:1023B0008068982E0AC0E2E0F0E0EC0FFD1FE10F0C
:1023C000F11D8081803319F411501111F4CF97FE63
:1023D0000EC044244394410E812F90E0C816D906C4
:1023E0002CF41C1904C04424439401C010E097FE4F
:1023F00006C01C141D0434F4C601019605C085E016
:1024000090E002C081E090E001110196112331F0CB
:10241000212F30E02F5F3F4F820F931F252D30E09B
:102420008217930714F4581A01C0512C892D897012
:1024300041F4552031F0B70180E290E028D35A945E
:10244000F8CF002321F0B701802F90E020D393FC38
:1024500008C0552031F0B70180E390E018D35A94BA
:10246000F8CF97FE4AC04601D7FE02C0812C912CBE
:10247000C60188199909F301E80FF91FFE87ED8756
:10248000960124193109388B2F87012F10E01195FF
:10249000019511093FEF8316930621F4B7018EE2EF
:1024A00090E0F5D2C814D9044CF08F85988988152E
:1024B000990524F4ED85FE85818101C080E3F1E07A
:1024C0008F1A91082D853E852F5F3F4F3E872D87C0
:1024D0008016910624F0B70190E0D9D2DBCFC81462
:1024E000D90441F49A81963320F4953319F43C854C
:1024F00034FF81E3B70190E048C08A81813319F04D
:102500009C859F7E9C87B70190E0C1D2111105C0C8
:1025100094FC16C085E690E015C0B7018EE290E00D
:10252000B6D21E5F82E001E0080FF301E80FF11D53
:102530008081B70190E0ABD2802F0113F4CFE8CFB8
:1025400085E490E0B701A3D2D7FC06C0C114D10442
:1025500041F4EC85E4FF05C0D194C194D1088DE22B
:1025600001C08BE2B70190E092D280E32AE0C2166C
:10257000D1042CF08F5FFAE0CF1AD108F7CFB70162
:1025800090E085D2B701C601C09681D249C1833699
:1025900031F0833779F0833509F052C01FC05601FE
:1025A00032E0A30EB11CF6018081898301E010E0C6
:1025B000630111C05601F2E0AF0EB11CF601C080FC
:1025C000D18096FE03C0612F70E002C06FEF7FEFF5
:1025D000C60152D28C01F92DFF7713C0560122E0BB
:1025E000A20EB11CF601C080D18096FE03C0612FFF
:1025F00070E002C06FEF7FEFC60133D28C01F92D7E
:10260000F0689F2EF3FD18C0852D90E0081719077C
:1026100098F4B70180E290E03AD25A94F5CFF601EF
:1026200097FC859197FE81916F01B70190E02FD2C1
:1026300051105A94015011090115110581F7F0C08C
:10264000843611F0893659F5560197FE09C024E009
:10265000A20EB11CF60160817181828193810AC052
:10266000F2E0AF0EB11CF60160817181072E000C03
:10267000880B990BF92DFF769F2E97FF09C0909537
:102680008095709561957F4F8F4F9F4FF0689F2E7B
:102690002AE030E0A3018DD2C82EC6183EC0092D15
:1026A000853721F40F7E2AE030E01DC0097F8F3688
:1026B00091F018F4883559F0BCC0803719F088378C
:1026C00011F0B7C0006104FF09C0046007C094FEA8
:1026D00008C0066006C028E030E005C020E130E018
:1026E00002C020E132E0560107FF09C084E0A80ED5
:1026F000B11CF601608171818281938108C0F2E092
:10270000AF0EB11CF6016081718180E090E0A30101
:1027100050D2C82EC6180F77902E96FE0BC0092DEA
:102720000E7FC11650F494FE0AC092FC08C0092D19
:102730000E7E05C0DC2C092D03C0DC2C01C0D12E7F
:1027400004FF0DC0FE01EC0DF11D8081803311F4FA
:10275000097E09C002FF06C0D394D39404C0802F21
:10276000867809F0D39403FD10C000FF06C01C2D2D
:10277000D51478F4150D1D190CC0D51450F4B701FB
:1027800080E290E084D1D394F8CFD51410F45D1892
:1027900001C0512C04FF0FC0B70180E390E077D156
:1027A00002FF16C001FD03C088E790E002C088E583
:1027B00090E0B7010CC0802F867851F001FF02C075
:1027C0008BE201C080E207FD8DE2B70190E05FD1AE
:1027D000C11630F4B70180E390E059D11150F8CF21
:1027E000CA94F301EC0DF11D8081B70190E04FD147
:1027F000C110F6CF15C0F4E0F51550F584E0581A75
:1028000093FE1EC0011125C02C8523FF27C00CE8B4
:1028100010E0392D3071932EF8018491811121C07F
:10282000552009F4FCCCB70180E290E030D15A94F5
:10283000F7CFF7018681978123C08FEF9FEF20C0EC
:10284000B70180E290E023D15A945110F9CFDACF4A
:10285000512CB701802F90E01AD1D6CF00E910E0BB
:10286000D8CF91108052B70190E011D10F5F1F4F68
:10287000D3CF23E0251510F483E0C1CF512CC4CF72
:1028800060960FB6F894DEBF0FBECDBFDF91CF913B
:102890001F910F91FF90EF90DF90CF90BF90AF907E
:1028A0009F908F907F906F905F904F903F902F9070
:1028B0000895283008F027E03327DA01990F311DF9
:1028C00087FD916000966105710539F432602E5FD5
:1028D0003D9330E32A95E1F708959F3F30F080382B
:1028E0007105610509F03C5F3C5F3D93913008F054
:1028F0008068911DDF93CF931F930F93FF92EF9208
:10290000192F987F9695E92F96959695E90FFF27B1
:10291000E251FF4F99273327EE24FF24A701E70157
:1029200005900894079428F4360FE71EF81E491FF7
:10293000511D660F771F881F991F0694A1F70590F8
:10294000079428F4E70EF81E491F561FC11D770F84
:10295000881F991F661F0694A1F70590079428F415
:10296000F80E491F561FC71FD11D880F991F661FDC
:10297000771F0694A1F70590079420F4490F561F7E
:10298000C71FD81F990F661F771F881F0694A9F7C6
:1029900084911095177041F0D695C7955795479536
:1029A000F794E7941A95C1F7E4E9F0E0689415907C
:1029B000159135916591959105907FE27395E11898
:1029C000F10A430B560BC90BD009C0F7E10CF11EFD
:1029D000431F561FC91FD01D7EF4703311F48A9512
:1029E000E6CFE894015030F0080F0AF400270217F0
:1029F00008F4202F2395022F7A3328F079E37D9372
:102A00002A95E9F710C07D932A9589F60694979543
:102A10006795379517951794E118F10A430B560BF4
:102A2000C90BD00998F023957E9173957A3308F0FD
:102A300070E37C932013B8F77E9170617D9330F042
:102A4000839571E37D9370E32A95E1F71124EF906C
:102A5000FF900F911F91CF91DF91992787FD90955E
:102A60000895FC010590615070400110D8F78095E1
:102A700090958E0F9F1F0895FC016150704001904A
:102A80000110D8F7809590958E0F9F1F08950F9392
:102A90001F93CF93DF93FB01238121FD03C08FEFB1
:102AA0009FEF2CC022FF16C04681578124813581BB
:102AB0004217530744F4A081B1819D012F5F3F4F1E
:102AC000318320838C93268137812F5F3F4F37835B
:102AD000268314C08B01EC01FB010084F185E02DFD
:102AE0000995892BE1F6D80116968D919C9117973F
:102AF000019617969C938E931697CE01DF91CF91F6
:102B00001F910F910895CF93DF93CDB7DEB7AE013C
:102B10004B5F5F4FFA0161917191AF018091360275
:102B2000909137023DDBDF91CF9108950F931F9372
:102B3000CF93DF93E0913602F0913702238121FF9A
:102B40001BC08C01D0E0C0E0F80181918F01609141
:102B5000360270913702DB011896ED91FC911997BE
:102B6000882331F00995892B79F3DFEFCFEFECCF94
:102B70008AE00995892B19F08FEF9FEF02C08D2F06
:102B80009C2FDF91CF911F910F910895CF93DF93E9
:102B9000CDB7DEB7AE014B5F5F4FFA016191719126
:102BA000AF01809134029091350213D2DF91CF9121
:102BB0000895FA01AA27283051F1203181F1E894D3
:102BC0006F936E7F6E5F7F4F8F4F9F4FAF4FB1E020
:102BD0003ED0B4E03CD0670F781F891F9A1FA11D1B
:102BE000680F791F8A1F911DA11D6A0F711D811D1C
:102BF000911DA11D20D009F468943F912AE0269FE1
:102C000011243019305D3193DEF6CF010895462F3F
:102C10004770405D4193B3E00FD0C9F7F6CF462F20
:102C20004F70405D4A3318F0495D31FD4052419389
:102C300002D0A9F7EACFB4E0A69597958795779546
:102C40006795BA95C9F700976105710508959B01CD
:102C5000AC010A2E06945795479537952795BA9556
:102C6000C9F7620F731F841F951FA01D089520FDD3
:102C700009C0FC0123FD05C022FF02C073836283EB
:102C800051834083089544FD17C046FD17C0AB0132
:102C9000BC01DA01FB01AA0FBB1FEE1FFF1F10943E
:102CA000D1F74A0F5B1F6E1F7F1FCB01BA01660F62
:102CB000771F881F991F09C033E001C034E0660FF9
:102CC000771F881F991F3150D1F7620F711D811D29
:102CD000911D08950F931F93CF93DF938C01C8012B
:102CE000A2D2EC0197FD06C08BD2892BC1F7B801A7
:102CF000CE01D7D2CE01DF91CF911F910F910895D0
:102D00008F929F92AF92BF92EF92FF920F931F9379
:102D1000CF93DF938C01D62F7A01B22E84D29C01FF
:102D200033272B32310531F02D32310559F48B2DFB
:102D30008068B82ED15011F480E061C0C80173D210
:102D400097FDFACFCB2DCD7F2B2D2073F9F4803357
:102D5000E9F4AA24AA94AD0E09F43EC0C80163D2D6
:102D600097FD3AC09C012F7D33272835310541F46A
:102D7000C264D25089F1C80156D297FF07C02CC057
:102D8000B6FE02C0C26001C0C261DA2D812C912C56
:102D9000540120ED280F283078F0C4FF03C0B8019B
:102DA00080D217C02A3040F0C6FFF9CF2F7D3FEE0A
:102DB000320F3630A0F727504C2FC501B40163DF26
:102DC0004B015C01C260D15051F0C8012CD297FF79
:102DD000E0CFC1FD04C0B0CF812C912C5401C7FFBE
:102DE00008C0B094A09490948094811C911CA11C64
:102DF000B11C2C2FB501A401C70139DF81E0DF919F
:102E0000CF911F910F91FF90EF90BF90AF909F9047
:102E10008F9008955F926F927F928F929F92AF9260
:102E2000BF92CF92DF92EF92FF920F931F93CF93B7
:102E3000DF93CDB7DEB7A0970FB6F894DEBF0FBE15
:102E4000CDBF5C01962E7A01F9018E010F5F1F4FF5
:102E5000680180E2D8011D928A95E9F7D5011396A1
:102E60008C9080E090E0612C712C30E061E070E0AB
:102E700083FC259183FE21918F01522E211103C0E5
:102E800080E090E090C02E3511F4009751F1432F6F
:102E900050E0481759073CF42D3559F12D3219F4FB
:102EA000772009F103C0772009F468C0452D4695C5
:102EB00046954695D601A40FB11D452D47708B014F
:102EC00002C0000F111F4A95E2F7A8015C91452B43
:102ED0004C93651459F0561410F45394E7CF5A9458
:102EE000E5CF31E004C07724739401C0712C0196C2
:102EF000BFCF772019F08E8180628E83311103C09D
:102F00008824839417C0F6019E012F5D3F4F808176
:102F1000809581932E173F07D1F7F2CFE114F1048A
:102F200029F0D7018C93F70131967F019A94812C77
:102F30009920E9F0C50177D197FD17C0FC01FF2763
:102F400023E0F595E7952A95E1F7EC0DFD1D20812D
:102F500030E0AC014770552702C0359527954A955A
:102F6000E2F720FDDBCFB5019CD1811089CFE114C0
:102F7000F10411F0D7011C92C80115C0422F4695EB
:102F800046954695D601A40FB11D422F47708B017F
:102F900002C0000F111F4A95E2F7A8015C91452B72
:102FA0004C93622EA4CFA0960FB6F894DEBF0FBE4E
:102FB000CDBFDF91CF911F910F91FF90EF90DF90E8
:102FC000CF90BF90AF909F908F907F906F905F90C9
:102FD00008955F926F927F928F929F92AF92BF926D
:102FE000CF92DF92EF92FF920F931F93CF93DF93D5
:102FF0006C01EB015A01FC0117821682512CF6017B
:10300000E380FE01E3FC8591E3FE8191182FEF013F
:10301000882309F4E0C090E0F3D0892B19F0C601B1
:1030200059DEEDCF153241F4FE01E3FC1591E3FECC
:103030001191EF01153271F4C601F5D097FDC9C0A9
:10304000412F50E09C01332724173507C1F2B60108
:1030500028D1C1C01A3239F4E3FC1591E3FE119175
:10306000EF0101E001C000E0F12C20ED210F2A303A
:1030700078F402606F2D70E080E090E040E203DEC3
:10308000F62EFE01E3FC1591E3FE1191EF01EDCF69
:1030900001FF03C0F11003C09EC0FF24FA9418364C
:1030A00019F01C3651F010C0FE01E3FC1591E3FE4F
:1030B0001191EF01183641F408600460FE01E3FC51
:1030C0001591E3FE1191EF01112309F484C0612FE2
:1030D00070E08EE891E09CD0892B09F47CC000FD63
:1030E00007C0F50180809180C50102965C0102C095
:1030F000812C912C1E3649F4F6014681578160E0FF
:1031000070E0202FC401B3DD7ACF1336A1F401FDA6
:1031100002C0FF24F394C60186D097FD5AC08114E3
:10312000910429F0F4018083C40101964C01FA94C2
:10313000F110F1CF4AC01B3551F49E01A4016F2D4F
:10314000C60168DEEC01892B09F03FC039C0C60119
:10315000C1DD97FD3EC01F3649F128F4143621F138
:10316000193639F125C0133771F01537E9F020C051
:103170008114910429F0F4016082C40101964C018C
:10318000FA94FF2059F0C6014ED03C0197FD06C0CD
:1031900037D0892B69F3B601C30183D08114910420
:1031A000A1F0F401108211C0006203C0006101C0EF
:1031B0000064202FA4016F2DC601A2DD811105C07E
:1031C000F6018381807329F406C000FD18CF539463
:1031D00016CF552019F0852D90E002C08FEF9FEF9C
:1031E000DF91CF911F910F91FF90EF90DF90CF90E3
:1031F000BF90AF909F908F907F906F905F90089559
:10320000911168C0803219F089508550D0F7089527
:10321000FC010590061621F00020D9F7C0010895A1
:103220003197CF010895CF93DF93EC012B8120FFDD
:1032300033C026FF0AC02F7B2B838E819F8101968E
:103240009F838E838A8190E029C022FF0FC0E8818E
:10325000F9818081082E000C990B009719F42062E7
:103260002B831AC03196F983E8830EC0EA85FB856B
:10327000099597FF09C02B81019611F080E201C0EA
:1032800080E1822B8B8308C02E813F812F5F3F4FCF
:103290003F832E83992702C08FEF9FEFDF91CF915D
:1032A0000895FB01238120FF12C026FD10C08F3F2F
:1032B0003FEF930761F082832F7D20642383268173
:1032C00037812150310937832683992708958FEF5D
:0E32D0009FEF0895992788270895F894FFCF5F
:1032DE000000000300000000ED00FA0000000000F6
:1032EE0023000000000000000000000000000000AD
:1032FE0000000000000000000000000000000000C0
:10330E00000000002300000000000000000000008C
:10331E00000000000000000000000000000000009F
:10332E00000000000000785B25645D3D0A00256604
:10333E0000415B25645D5B25645D3D0A00425B25B3
:10334E00645D5B25645D3D0A00435B25645D5B2522
:10335E00645D3D0A00445B305D3D00755B305D3D54
:06336E000025660A0000C4
:00000001FF
